:100000000C942C040C9454040C9454040C94540438
:100010000C9454040C9454040C9454040C94540400
:100020000C9454040C9454040C9454040C945404F0
:100030000C9454040C9454040C9454040C945404E0
:100040000C94710E0C9454040C94D7100C940F1152
:100050000C9454040C9454040C9454040C945404C0
:100060000C9454040C945404910001000100FF000E
:10007000000000000100910005000100FF000000E9
:1000800000000100910003000100FF0000000000DB
:100090000100920003000100FF00000000000100C9
:1000A000920002000100FF00000000000100930028
:1000B00001000100FF0000000000010093000300A8
:1000C0000100FF000000000001009000040001009A
:1000D000FF00000000000100900005000100FF008B
:1000E0000000000001009000070002006A00FF000D
:1000F00000000100900006000100FF000000000069
:10010000010091000A0003006400DF00FF0001000D
:1001100092000D0003006400DF00FF000100910069
:100120000B0003006200DF00FF00010092000700E7
:1001300003006200DF00FF00010093000C000300D9
:100140006200DF00FF000100910008000300620070
:10015000DF00FF0001009200060003006200DF00E4
:10016000FF00010093000B0003006200DF00FF00AE
:1001700001009100090002004100F70000000100A9
:1001800091000C0003006200DF00FF0001009200FC
:10019000080003006200DF00FF00010093000D0073
:1001A00003006200DF00FF00010093000600020070
:1001B000C100D90000000100930008000200C10046
:1001C000D90000000100930007000200E100D900FF
:1001D00000000100940003000200E100990000000B
:1001E0000100950002000200E100990000000100FA
:1001F000960002000300C1009900FF000100970073
:1002000002000300C1009900FD00010092000500FA
:1002100003006200DF00FF00010092000A000300FB
:100220006200DF00FF00010093000A00030062008B
:10023000DF00FF00010093000F0003006200DF00F9
:10024000FF0001009400060003006200DF00FF00D1
:10025000010094000B0003006200DF00FF000100BA
:100260009500140003006200D900FF000100940013
:100270000F00030042009900FF00010094000A00F3
:10028000030042009900FF000100950015000300E3
:1002900042009900FF0001009500080003004200A1
:1002A0009900FF0001009500110003004200990031
:1002B000FF00010096000900030062009900FF00A2
:1002C000010096000A00030062009900FF0001008F
:1002D00097000600030042009900FF00010097000C
:1002E0000500030042009900FF00010095000F0087
:1002F00003006200D900FF0001004154393053323D
:1003000033313300415439305332333333004154A5
:100310003930533233343300415439305334343369
:10032000330041543930533434333400415439307C
:100330005338353135004154393053383533350071
:10034000415474696E79313100415474696E793168
:100350003200415474696E79313300415474696ECE
:1003600079313500415474696E793233313300414B
:100370005474696E793433313300415474696E7941
:10038000323400415474696E7934340041547469D4
:100390006E79383400415474696E793235004154B5
:1003A00074696E79343500415474696E793835005A
:1003B000415474696E79323600415474696E7932F1
:1003C000363100415474696E7934363100415474C9
:1003D000696E793836310041546D65676138353161
:1003E000350041546D656761383533350041546DD2
:1003F000656761380041546D65676131360041546D
:100400006D65676133320041546D65676136340054
:1004100041546D6567613132380041546D656761E3
:1004200034380041546D6567613438500041546D73
:1004300065676138380041546D6567613838500030
:1004400041546D6567613136380041546D656761AF
:10045000313638500041546D6567613332380041A0
:10046000546D656761313634410041546D65676193
:10047000313634500041546D656761333234410088
:1004800041546D656761333234500041546D656786
:100490006133323450410041546D65676136343404
:1004A0000041546D656761363434500041546D65C8
:1004B0006761313238340041546D656761313238DB
:1004C00034500041546D6567613332385000FA0290
:1004D00004030E03180322032C03360340034903CD
:1004E00052035B0364036F037A0383038C03950356
:1004F0009E03A703B003B903C303CD03D703E203ED
:10050000ED03F503FE03070410041A0423042D046D
:10051000360440044A0455045F046A0475048004E8
:100520008B049704A104AC04B704C304437572722E
:10053000656E74206C6F636B20627974653A20205D
:1005400020004C2F482F452D46757365733A2000C7
:100550004C2F482D46757365733A20202000467550
:10056000736520627974653A202020002E2E2E6457
:100570006F6E65000A4275726E696E67202E2E2EB0
:10058000004E6577206C6F636B20627974653A204A
:10059000002E2E2E646F6E65000A4275726E696EB3
:1005A00067202E2E2E004E657720657874656E6468
:1005B000656420667573653A20002E2E2E646F6E7A
:1005C00065000A4275726E696E67202E2E2E004EEF
:1005D0006577206869676820667573653A20002E24
:1005E0002E2E646F6E65000A4275726E696E67200A
:1005F0002E2E2E004E6577206C6F77206675736502
:100600003A20002E2E2E646F6E65000A4275726EBF
:10061000696E67202E2E2E00274572617365206358
:1006200068697027206973206E6F7420616C6C6F2D
:10063000776564002E2E2E646F6E65000A45726128
:1006400073696E67202E2E2E00416374696F6E3AB7
:10065000200020204B202D204368616E6765206CB0
:100660006F636B206279746500202058202D204331
:1006700068616E676520657874656E646564206680
:1006800075736500202048202D204368616E6765E2
:10069000206869676820667573650020204C202DEE
:1006A000204368616E6765206C6F7720667573659F
:1006B00000202044202D204275726E206465666102
:1006C000756C7420667573652076616C7565730052
:1006D000202045202D204572617365206368697074
:1006E0000043686F6F73653A0023206F662066755C
:1006F00073652062797465732028312D33293A207F
:1007000000556E6B6E6F776E00202F20004D4355A5
:10071000206E616D653A2020005369676E617475C3
:1007200072653A200027206973206E6F742076610D
:100730006C69642063686F6963652E0043686F6944
:1007400063653A2000202058202D206578697400C8
:10075000202053202D204856535000202054202D77
:10076000204856505020666F722054696E790020E0
:100770002050202D20485650500043686F6F7365FD
:100780002066726F6D3A00496E73657274206368FB
:10079000697020616E642070726573732062757475
:1007A000746F6E206F72206769766520646574616E
:1007B000696C732E004E6F206368697020666F75D8
:1007C0006E642100202F206E6F6E2D696E7465722D
:1007D00061637469766500202F20696E74657261AB
:1007E000637469766500526573637565415652207E
:1007F00056657273696F6E20302E3900000000005C
:10080000240027002A0000000000250028002B00FB
:10081000000000002300260029000404040404044E
:10082000040402020202020203030303030301029F
:10083000040810204080010204081020010204086E
:100840001020000000070002010000030406000061
:10085000000000000000DA1111241FBECFEFD8E025
:10086000DEBFCDBF11E0A0E0B1E0ECE4F7E202C0F2
:1008700005900D92AC34B107D9F712E0ACE4B1E0C9
:1008800001C01D92A530B107E1F718E0C8E5D8E036
:1008900004C02297FE010E949113C635D107C9F703
:1008A0000E941B120C94A4130C9400009C0144277A
:1008B00055272E31310541055105D9F4A72F20E0E8
:1008C00030E0A901440F551FCA0173E0880F991F3A
:1008D0007A95E1F7841B950BFC01E859FF4FE491F1
:1008E000AE1759F486599F4FFC018491681729F47B
:1008F00002C02FEF3FEFC90108952F5F3F4F2F3206
:100900003105F9F6F6CF0F931F93DF93CF93CDB751
:10091000DEB72F970FB6F894DEBF0FBECDBF8F3274
:10092000910598F4FC01EE0FFF1FE253FB4F259158
:1009300034918E010F5F1F4FC801B9010E949D13B2
:1009400083EE91E0B8010E9490122F960FB6F894B2
:10095000DEBF0FBECDBFCF91DF911F910F910895E4
:100960008F92AF92CF92EF920F93DF93CF93CDB749
:10097000DEB7FC01641711F491E0201390E0892F99
:10098000E230F10574F0992311F091E0EC1090E061
:10099000892FE230F10529F0992311F081E0A810A8
:1009A00080E0CF91DF910F91EF90CF90AF908F903B
:1009B0000895CF93DF93EC018130910529F48FE006
:1009C0008093370186E004C083E18093370181E1A1
:1009D0008093380115B814B88091370160E00E9407
:1009E000C20F8091380160E00E94C20F80E160E098
:1009F0000E94C20F8FE060E00E94C20F86E060E0BC
:100A00000E94C20F84E060E00E94C20F82E060E0BA
:100A10000E94C20F64E670E080E090E00E94EB0E5E
:100A2000C230D10581F481E160E00E94C20F80E113
:100A300060E00E94C20F8FE060E00E94C20F8EE073
:100A400061E00E94840F85E060E00E94C20F80E5B3
:100A500090E00E94120F87E061E00E94C20FC23056
:100A6000D10541F481E090E00E94120F8FE060E038
:100A70000E94840F8AE090E00E94120F82E061E001
:100A80000E94C20F84E061E00E94C20F61E070E04A
:100A900080E090E00E94EB0EDF91CF91089515B8B1
:100AA00014B882E061E00E94C20F87E060E00E941B
:100AB000C20F61E070E080E090E00E94EB0E82E007
:100AC00060E00E94C20F84E060E00E94C20F80914B
:100AD000370160E00E94C20F8091380160E00E94FF
:100AE000C20F80E160E00E94C20F8FE060E00E94D0
:100AF000C20F86E060E00E94C20F85E061E00E94C4
:100B0000C20F089561E070E080E090E00E94EB0E7B
:100B10008EE061E00E94C20F61E070E080E090E052
:100B20000E94EB0E8EE060E00E94C20F0895EF92EB
:100B3000FF920F931F93CF93DF93082FE62E8EE043
:100B400060E00E94C20F81E160E00E94C20F80E17C
:100B500060E00E94C20F0E948205C0E0D0E010E079
:100B6000FF24C8010C2E02C0880F991F0A94E2F7D7
:100B700087FF03C081E161E002C081E160E00E9483
:100B8000C20FC7010C2E02C0880F991F0A94E2F70A
:100B900087FF03C080E161E002C080E160E00E9465
:100BA000C20F0E9482052196C830D105D1F681E19D
:100BB00060E00E94C20F80E160E00E94C20F0E94CC
:100BC000820581E160E00E94C20F80E160E00E9446
:100BD000C20F0E948205DF91CF911F910F91FF906C
:100BE000EF900895CF93C82F6130710581F0623086
:100BF000710524F46115710541F037C0623071054B
:100C0000A9F06330710589F520C080E41FC080E43D
:100C10006CE40E9497058C2F6CE20E94970580E09F
:100C200064E70E94970580E06CE71DC080E46CE4F7
:100C30000E9497058C2F6CE20E94970580E066E683
:100C40000E94970580E06EE60EC080E26CE40E9490
:100C500097058C2F6CE20E94970580E064E60E9465
:100C6000970580E06CE60E9497058FE00E94FA0FDE
:100C70000097D9F3CF91089580E86CE40E9497051E
:100C800080E064E60E94970580E06CE60E9497058C
:100C90008FE00E94FA0F0097D9F30895BF92CF9288
:100CA000DF92EF92FF920F931F93CF93DF93E82E83
:100CB000C62E8EE060E00E94C20F81E160E00E94DB
:100CC000C20F80E160E00E94C20F0E9482058FE0A7
:100CD0000E94FA0F8130910511F0BB2402C0B0E8E8
:100CE000BB2EC0E0D0E0FF24DD2400E410E097013B
:100CF0000C2E02C0220F331F0A94E2F727FF03C015
:100D000081E161E002C081E160E00E94C20F9601D2
:100D10000C2E02C0220F331F0A94E2F727FF03C0F4
:100D200080E161E002C080E160E00E94C20F0E94A9
:100D30008205C730D10571F08FE00E94FA0F813033
:100D4000910541F498010C2E02C0359527950A941F
:100D5000E2F7B22A2196C830D10549F681E160E078
:100D60000E94C20F80E160E00E94C20F0E948205D3
:100D700081E160E00E94C20F80E160E00E94C20F4A
:100D80000E9482058B2DDF91CF911F910F91FF90D3
:100D9000EF90DF90CF90BF900895EF92FF920F9366
:100DA0001F93CF93C0E0EE24FF24870188E06CE41A
:100DB0000E944E068C2F6CE00E944E0680E068E692
:100DC0000E944E06102F0F2DFE2CEE2480E06CE6C4
:100DD0000E944E06E80EF11C011D111DCF5FC330AD
:100DE00029F7B701C801CF911F910F91FF90EF90A4
:100DF000089581309105A1F0823091051CF400978F
:100E000041F031C082309105B1F08330910559F540
:100E10001DC084E06CE40E944E0680E068E61CC0C1
:100E200084E06CE40E944E0680E06AE70E944E0671
:100E300080E06EE715C084E06CE40E944E0680E01E
:100E40006AE60E944E0680E06EE60AC084E06CE42A
:100E50000E944E0680E068E70E944E0680E06CE645
:100E60000E944E06482F842F089561E070E080E0D4
:100E700090E00E94EB0E83E061E00E94C20F61E00F
:100E800070E080E090E00E94EB0E83E060E00E9462
:100E9000C20F08951F93CF93DF93EC01142F6623A5
:100EA00021F08091380161E003C08091380160E059
:100EB0000E94C20F80E160E00E94C20F8FE060E0FC
:100EC0000E94C20FC130D10521F086E060E00E948F
:100ED000C20F15B98FEF84B90E94350715B814B841
:100EE0008091380160E00E94C20FDF91CF911F9185
:100EF0000895DF92EF92FF920F931F93CF93DF93AA
:100F0000EC0115B814B8DD24EE24FF248701CE01CE
:100F100061E048E00E944A07CE0160E04D2D0E944A
:100F20004A078FE060E00E94C20F82E060E00E940A
:100F3000C20F61E070E080E090E00E94EB0E102FA5
:100F40000F2DFE2CEE2483B1E80EF11C011D111DA6
:100F500082E061E00E94C20FD3948D2D8330B9F6F8
:100F6000B701C801DF91CF911F910F91FF90EF90D2
:100F7000DF9008958230910519F40E94CD060895FE
:100F80000E9479070895CF93DF93EB0161E044E07D
:100F90000E944A0715B814B8C130D10581F0C2309B
:100FA000D1051CF4209741F01CC0C230D10551F08E
:100FB000C330D105B1F40DC086E060E005C086E025
:100FC00061E009C086E061E00E94C20F8FE060E04E
:100FD00006C086E060E00E94C20F8FE061E00E94E0
:100FE000C20F82E060E00E94C20F61E070E080E02A
:100FF00090E00E94EB0EC3B182E061E00E94C20F5C
:101000008C2FDF91CF9108958230910521F4CB018F
:101010000E94F90608950E94C307089561E040E820
:101020000E944A0784E060E00E94C20F61E070E025
:1010300080E090E00E94EB0E84E061E00E94C20F2D
:101040008EE00E94FA0F0097D9F30895823091053F
:1010500019F40E943C0608950E940E080895FF921C
:101060000F931F93CF93DF938C01F62EEA01433049
:10107000510519F461E040E202C061E040E40E94E1
:101080004A078091380160E00E94C20F80E161E070
:101090000E94C20F8FE060E00E94C20F0130110574
:1010A00021F086E060E00E94C20F61E070E080E025
:1010B00090E00E94EB0EF5B88FEF84B90E943507DF
:1010C00015B814B8C130D10531F0C230D10569F07E
:1010D000209721F012C08FE061E002C08FE060E055
:1010E0000E94C20F86E060E006C08FE060E00E94D0
:1010F000C20F86E061E00E94C20F61E070E080E014
:1011000090E00E94EB0E84E060E00E94C20F61E07C
:1011100070E080E090E00E94EB0E84E061E00E94CD
:10112000C20F8EE00E94FA0F0097D9F38FE060E0C3
:101130000E94C20F86E060E00E94C20FDF91CF9153
:101140001F910F91FF9008958230910529F4862F09
:10115000BA010E94F20508950E942F080895982F61
:1011600090539A3028F4282F30E0205330400BC0A1
:10117000982F9154963028F4282F30E02753304090
:1011800002C020E030E0C9010895FF920F931F9341
:10119000DF93CF9300D00F92CDB7DEB7FF248E013F
:1011A0000F5F1F4F83EE91E00E9424100097D1F350
:1011B00083EE91E00E945310282F8F2D813069F427
:1011C000283011F02F3749F483EE91E060E071E0B0
:1011D0002B830E949012FF242B81822F8156863010
:1011E00038F4822F992787FD90950E949513282F18
:1011F000822F80538A3018F08151863050F4F801E4
:10120000EF0DF11D2083F39483EE91E0622F0E9495
:1012100093128F2D823030F283EE91E00E949B1268
:101220008A810E94AF088C0189810E94AF089C01CD
:1012300044E0220F331F4A95E1F7200F311FC90107
:101240000F900F900F90CF91DF911F910F91FF9012
:101250000895CF93DF93D82FC62F803128F483EEE3
:1012600091E060E30E94931283EE91E06D2F40E1E4
:1012700050E00E946513CC2329F083EE91E060E2F8
:101280000E949312DF91CF9108951F93CF93DF9324
:10129000182FC3EED1E0CE016CE275E00E946D1212
:1012A000812F61E00E942909CE010E949B12DF91EB
:1012B000CF911F9108950F931F93CF93DF93FC015C
:1012C000C62FD42F122F83EE91E0BF010E949012FF
:1012D000C23049F0C33061F0C13081F483EE91E057
:1012E0006EE575E009C083EE91E060E575E004C04D
:1012F00083EE91E062E475E00E946D128D2F61E053
:101300000E942909C23050F0812F61E00E94290912
:10131000C23021F0802F61E00E94290983EE91E024
:101320000E949B12DF91CF911F910F91089500971A
:1013300021F08130910559F405C080E161E00E94FF
:10134000C20F08958091380161E00E94C20F089594
:10135000009721F08130910559F405C080E160E0EB
:101360000E94C20F08958091380160E00E94C20F70
:101370000895CF9315B814B882E162E00E94840FFB
:1013800085E061E00E94840F8EE060E00E94840F9F
:1013900082E061E00E94840F84E061E00E94840F9B
:1013A0008FE061E00E94840F80E161E00E94840F81
:1013B0008091380161E00E94840F8091370161E0E3
:1013C0000E94840F87E061E00E94840F86E061E064
:1013D0000E94840F83E061E00E94840F80E00E94FD
:1013E000FA0F009711F41092390187E060E00E9433
:1013F000C20F85E061E00E94C20F83EE91E040E001
:101400005BE460E070E00E944A1183EE91E00E948C
:101410009B1283EE91E00E949B1283EE91E066EEB8
:1014200077E00E946D1280913901882329F083EEC4
:1014300091E067ED77E004C083EE91E064EC77E043
:101440000E94B01283EE91E00E949B1210924C0118
:1014500027C090E00E94D90480914C0190E00E9446
:10146000BA0760934E0170934F018093500190939F
:1014700051010E944F0580914E0190914F01A09122
:101480005001B0915101CD01AA27BB278E319105A2
:10149000A105B10549F080914C018F5F80934C010B
:1014A00080914C018330A8F280914C01833008F484
:1014B0008DC083EE91E065EB77E00E94B01283EE81
:1014C00091E067E877E00E94B012809139018823AB
:1014D00099F480E090E00E94970968EB7BE080E05F
:1014E00090E00E94EB0E80E090E00E94A809FFCF00
:1014F00083EE91E00E94531083EE91E00E9424104D
:101500000097B1F783EE91E00E949B1283EE91E089
:101510006AE777E00E94B01283EE91E06FE677E031
:101520000E94B01283EE91E06BE577E00E94B0126A
:1015300083EE91E060E577E00E94B01283EE91E0E7
:1015400065E477E00E94B01283EE91E06CE377E00F
:101550000E946D1283EE91E00E9424100097D1F357
:1015600083EE91E00E9453100E949513C82F83EEE2
:1015700091E06C2F0E94D61204C083EE91E00E948D
:10158000531083EE91E00E9424100097B1F7C0350C
:1015900009F413C1C435B9F0C33509F411C1C83514
:1015A000A1F083EE91E064E071E00E94901283EE7E
:1015B00091E06C2F0E94931283EE91E065E277E058
:1015C0000E94B0129FCF81E0FCC0FFCF83EE91E07C
:1015D00069E177E00E946D1240914E0150914F01F8
:1015E000609150017091510183EE91E020E130E073
:1015F0000E94521360914E0170914F0180915001F1
:10160000909151010E94560490933B0180933A01BE
:1016100083EE91E06DE077E00E946D1280913A01D7
:1016200090913B0197FD30C09C01220F331FF901BF
:1016300073E0EE0FFF1F7A95E1F7E21BF30BEC5816
:10164000FF4FE491EE2301F50E94830483EE91E0C5
:1016500069E077E00E946D1280913901882371F46E
:1016600081E090E00E9497096CED75E080E090E0E9
:101670000E94EB0E81E090E00E94A8098FEF9FEF9F
:1016800090933B0180933A0180913A0190913B0104
:1016900097FF62C083EE91E061E077E00E94B012B4
:1016A00080913901882379F480E090E00E949709C5
:1016B00068EB7BE080E090E00E94EB0E80E090E041
:1016C0000E94A809FFCF80E090E00E9497096CED8E
:1016D00075E080E090E00E94EB0E80E090E00E94D8
:1016E000A80910924D0104C083EE91E00E945310AE
:1016F00083EE91E00E9424100097B1F727C083EE9B
:1017000091E069EE76E00E946D1283EE91E00E9416
:1017100024100097D1F383EE91E00E945310682FBC
:1017200080934D0183EE91E00E94D61204C083EEB7
:1017300091E00E94531083EE91E00E9424100097E4
:10174000B1F780914D01805380934D0180914D01FF
:1017500081508330A0F638C00E94830483EE91E06C
:101760000E949B1280913A0190913B01880F991F32
:10177000FC0153E0EE0FFF1F5A95E1F7E81BF90B50
:10178000E459FF4FE491E0934D0181E090E00E9425
:10179000970980913901882329F06CED75E080E08C
:1017A00090E004C068EB7BE080E090E00E94EB0EEC
:1017B00081E090E00E94A80907C010924C0106CF7A
:1017C00082E080934C0102CFCF910895EF92FF9277
:1017D0000F931F93CF93DF937C01EB01CC0FDD1FA1
:1017E000CC0FDD1FC60FD71F00E010E014C0C701EB
:1017F0000E94970964E670E080E090E00E94EB0EA2
:10180000C7010E94A80964E670E080E090E00E94B1
:10181000EB0E0F5F1F4F0C171D074CF3DF91CF919D
:101820001F910F91FF90EF9008958F92AF92CF92FA
:10183000EF920F931F93CF93DF9380913A01909192
:101840003B0197FD16C0880F991FDC01C3E0AA0F6A
:10185000BB1FCA95E1F7A81BB90BFD01E259FF4F69
:10186000C491FD01E059FF4FC490AE58BF4FFD0138
:10187000849080914C0190E00E94D90480914C01A9
:1018800090E060E070E00E940408182F80914D0104
:10189000823040F080914C0190E061E070E00E9465
:1018A0000408E82E80914D01833040F080914C0176
:1018B00090E062E070E00E940408A82E80914C0144
:1018C00090E063E070E00E940408D82F0E944F056A
:1018D00086E091E060914D01412F2E2D0A2D0E944E
:1018E0005B0920913A0130913B0137FD09C08FE03F
:1018F00091E060914D014C2F2C2D082D0E945B0929
:101900008D2F0E94450980913901882309F460C117
:1019100083EE91E00E949B1283EE91E061EE76E00F
:101920000E94B01283EE91E060ED76E00E94B0126A
:1019300080913A0190913B0197FD06C083EE91E0C2
:1019400061EB76E00E94B01283EE91E06BE976E005
:101950000E94B01280914D01823030F083EE91E010
:1019600064E876E00E94B01280914D01833030F03F
:1019700083EE91E069E676E00E94B01283EE91E09A
:1019800062E576E00E94B01283EE91E069E476E0D1
:101990000E946D1283EE91E00E9424100097D1F313
:1019A00083EE91E00E9453100E949513D82F83EE8E
:1019B00091E06D2F0E94D6128D2F84548230D0F08A
:1019C000DC34C1F0D834B1F0D835A1F0DB3491F07B
:1019D00083EE91E064E071E00E94901283EE91E06A
:1019E0006D2F0E94931283EE91E068E171E00E94F6
:1019F000C3128ECF80914C0190E00E94D904D8345C
:101A000009F479C0D93434F4D43441F1D53409F02F
:101A1000D0C00AC0DC3409F452C0D83509F48CC0F7
:101A2000DB3409F0C6C0A8C082E10E94FA0F00971B
:101A300081F483EE91E06CE376E00E94B012809135
:101A40004C0190E00E94260883EE91E064E376E08A
:101A5000AEC083EE91E068E176E0A9C080913A01E2
:101A600090913B0197FDA5C083EE91E06BE076E09D
:101A70000E94B01280914C0190E06C2F40E050E049
:101A80000E94A40880914D01823040F080914C0169
:101A900090E06C2D41E050E00E94A40880914D013F
:101AA000833040F080914C0190E0682D42E050E09E
:101AB0000E94A40883EE91E063E076E078C083EEB4
:101AC00091E064EF75E00E946D120E94C508C82F76
:101AD00083EE91E067EE75E00E94B01280914C01B8
:101AE00090E06C2F40E050E00E94A40883EE91E06B
:101AF0006FED75E05CC080914D01823008F459C0F3
:101B000083EE91E06FEC75E00E946D120E94C508B3
:101B1000C82F83EE91E062EC75E00E94B0128091D4
:101B20004C0190E06C2F41E050E00E94A40883EE4D
:101B300091E06AEB75E03BC080914D018330C8F1C4
:101B400083EE91E066EA75E00E946D120E94C5087E
:101B5000C82F83EE91E069E975E00E94B012809190
:101B60004C0190E06C2F42E050E00E94A40883EE0C
:101B700091E061E975E01BC083EE91E061E875E0FA
:101B80000E946D120E94C508C82F83EE91E064E7A1
:101B900075E00E94B01280914C0190E06C2F43E000
:101BA00050E00E94A40883EE91E06CE675E00E948C
:101BB000B01283EE91E00E949B120E944F05DF91CC
:101BC000CF911F910F91EF90CF90AF908F9008958C
:101BD00080914C0190E00E94D90480914C0190E0EA
:101BE0006FEF43E050E00E94A40880914C0190E028
:101BF00063E070E00E9404088F3F51F082E10E9490
:101C0000FA0F009729F480914C0190E00E94260879
:101C100080914C0190E06C2F40E050E00E94A408BD
:101C200080914D01823040F080914C0190E06C2D0C
:101C300041E050E00E94A40880914D01833040F0C3
:101C400080914C0190E0682D42E050E00E94A40891
:101C500064E670E080E090E00E94EB0E80914C0121
:101C600090E063E070E00E940408182F80914C011E
:101C700090E060E070E00E940408D82F80914D0150
:101C8000823040F080914C0190E061E070E00E9471
:101C90000408E82E80914D01833040F080914C0182
:101CA00090E062E070E00E940408A82E0E944F05B8
:101CB00080914D0190E0612F4FEF2D2F0C2F0E944E
:101CC000B004882339F081E090E065E070E00E9484
:101CD000E60B06C080E090E065E070E00E94E60B55
:101CE000FFCF1F920F920FB60F9211242F933F93A5
:101CF0004F935F936F937F938F939F93AF93BF9314
:101D0000209156013091570140915801509159014D
:101D100070915A01DA01C9010296A11DB11D672F08
:101D20006A5F6D3730F06D57DA01C9010396A11D66
:101D3000B11D60935A018093560190935701A0936F
:101D40005801B09359018091520190915301A09193
:101D50005401B09155010196A11DB11D809352010E
:101D600090935301A0935401B0935501BF91AF914B
:101D70009F918F917F916F915F914F913F912F91A3
:101D80000F900FBE0F901F9018959FB7F894209159
:101D9000520130915301409154015091550186B543
:101DA000A89B06C08F3F21F02F5F3F4F4F4F5F4FE3
:101DB0009FBF542F432F322F2227280F311D411D43
:101DC000511D83E0220F331F441F551F8A95D1F701
:101DD000B901CA010895EF92FF920F931F93CF9319
:101DE000DF937B018C010E94C50EEB010FC00E94A6
:101DF000C50E6C1B7D0B83E0683E780738F00894B5
:101E0000E108F10801091109C851DC4FE114F1049E
:101E10000105110561F7DF91CF911F910F91FF909F
:101E2000EF900895019739F0019729F0880F991FD5
:101E300001970197F1F70895789484B5826084BD85
:101E400084B5816084BD85B5826085BD85B58160BE
:101E500085BDEEE6F0E0808181608083E1E8F0E01E
:101E60001082808182608083808181608083E0E84D
:101E7000F0E0808181608083E1EBF0E0808184602C
:101E80008083E0EBF0E0808181608083EAE7F0E02E
:101E90008081846080838081826080838081816092
:101EA00080838081806880831092C1000895833090
:101EB00071F0843028F48130A1F0823021F514C013
:101EC0008630B1F08730D1F08430E9F404C08091DD
:101ED00080008F7703C0809180008F7D8093800089
:101EE000089584B58F7702C084B58F7D84BD089531
:101EF0008091B0008F778093B00008958091B000FA
:101F00008F7D8093B0000895CF93DF9390E0FC0124
:101F1000E25DF74F4491865E974FFC0184918823E0
:101F200071F190E0880F991FFC01E450F84F259162
:101F30003491D9018A5F974FFC0125913491C22FCA
:101F4000D32F662349F49FB7F8948C91409584234E
:101F50008C93888184230BC0623059F49FB7F89426
:101F60008C91242F209582238C938881842B8883C5
:101F700005C09FB7F8948C91842B8C939FBFDF9101
:101F8000CF9108950F931F93DF93CF930F92CDB707
:101F9000DEB7282F30E0F901EE5BF74F8491F901AD
:101FA000E25DF74F1491265E374FF901049100234B
:101FB000D9F0882321F069830E94570F6981E02FAF
:101FC000F0E0EE0FFF1FEA5FF74F85919491DC017F
:101FD0009FB7F894662321F48C911095812302C059
:101FE0008C91812B8C939FBF0F90CF91DF911F918C
:101FF0000F910895CF93DF93282F30E0F901EE5B26
:10200000F74F8491F901E25DF74FD491265E374F87
:10201000F901C491CC2391F0882311F00E94570F4D
:10202000EC2FF0E0EE0FFF1FE05FF74F85919491EA
:10203000DC018C918D2321E030E011F420E030E0D0
:10204000C901DF91CF910895FC0184859585FC013C
:10205000E05CFF4F208131818E5B9F4FFC018081CE
:102060009181281B390B2F733070C9010895FC0131
:1020700084859585FC01E05CFF4F40815181FC0126
:10208000EE5BFF4F208131814217530741F00190F1
:10209000F081E02DE80FF91F208130E002C02FEF22
:1020A0003FEFC9010895FC0184859585FC01E05C42
:1020B000FF4F40815181FC01EE5BFF4F2081318158
:1020C0004217530771F0A081B181A80FB91F2C915D
:1020D0008081918101968F7390709183808330E02D
:1020E00002C02FEF3FEFC9010895FC0181A18823B1
:1020F00029F0A489B5898C9186FFFBCF11A20895A0
:10210000FC0126853785D901A05CBF4F8D919C913C
:1021100001968F739070D901AE5BBF4F4D915C916A
:10212000119784179507D1F3D901A05CBF4F0D908B
:10213000BC91A02DA20FB31F6C93A685B785A05CA0
:10214000BF4F11969C938E93A689B7892C9181E0FD
:1021500090E0078C02C0880F991F0A94E2F7282BA1
:102160002C9381E081A30488F589E02D808180642F
:10217000808381E090E00895FB01E05CFF4F2081C7
:1021800031812F5F3F4F2F733070DB01AE5BBF4F4C
:102190004D915C9111972417350739F0A081B181D9
:1021A000A60FB71F8C9331832083089508951F9243
:1021B0000F920FB60F9211242F933F934F935F937B
:1021C0006F937F938F939F93AF93BF93EF93FF93FF
:1021D0008091C00082FD07C08091C6006BE571E070
:1021E0000E94BC1002C08091C600FF91EF91BF9188
:1021F000AF919F918F917F916F915F914F913F919F
:102200002F910F900FBE0F901F90189583EE91E0C5
:102210000E942410009711F00E94D61008951F927A
:102220000F920FB60F9211242F933F938F939F938A
:10223000EF93FF932091DF013091E0018091E10164
:102240009091E2012817390731F48091C1008F7D08
:102250008093C10014C0E091E101F091E201E156E8
:10226000FE4F20818091E1019091E20101968F73F0
:1022700090709093E2018093E1012093C600FF915A
:10228000EF919F918F913F912F910F900FBE0F90E3
:102290001F9018959F92AF92BF92CF92DF92EF92CC
:1022A000FF920F931F93CF93DF93EC017A018B0181
:1022B00099249394EC89FD8981E090E008A002C004
:1022C000880F991F0A94E2F7808360E874E88EE132
:1022D00090E0A80197010E946D13215030404040CA
:1022E0005040569547953795279590E4A92E92E44E
:1022F000B92E9FE0C92ED12C12C09924EC89FD89FA
:102300001082C601B501A80197010E946D132150EA
:10231000304040405040569547953795279580E18D
:102320002030380710F0992041F7E889F989308387
:10233000EA89FB89208319A2EE89FF89408181E027
:1023400090E09C010C8C02C0220F331F0A94E2F72C
:10235000422B4083EE89FF8940819C010D8C02C095
:10236000220F331F0A94E2F7422B4083EE89FF8944
:1023700040819C010E8C02C0220F331F0A94E2F7A9
:10238000422B4083EE89FF8920810F8C02C0880F89
:10239000991F0A94E2F7809582238083DF91CF9181
:1023A0001F910F91FF90EF90DF90CF90BF90AF9073
:1023B0009F9008951092E6011092E50188EE93E057
:1023C000A0E0B0E08093E7019093E801A093E901D9
:1023D000B093EA01E5EEF1E080E491E0929382931C
:1023E0008BE591E0958784878FE991E097878687D1
:1023F00085EC90E0918B808B84EC90E0938B828BCA
:1024000080EC90E0958B848B81EC90E0978B868BB1
:1024100082EC90E0918F808F86EC90E0938F828F9A
:1024200084E0848F83E0858F87E0868F85E0878FC7
:1024300081E080A30895CF93DF930E941C0F0E9438
:10244000B909C6E0D1E10E94150C2097E1F30E9482
:102450000611F9CFCF92DF92EF92FF920F931F9365
:10246000CF93DF936C017B018A01C0E0D0E00FC005
:10247000D7016D917D01D601ED91FC910190F08124
:10248000E02DC6010995C80FD91F01501040011554
:10249000110571F7CE01DF91CF911F910F91FF9040
:1024A000EF90DF90CF9008956115710591F0DB01F9
:1024B0000D900020E9F7AD0141505040461B570BED
:1024C000DC01ED91FC910280F381E02D09959C01E6
:1024D00002C020E030E0C9010895EF92FF920F930F
:1024E0001F93CF93DF937C01062F172FC0E0D0E01E
:1024F000F8010F5F1F4F6491662351F0F701A0812F
:10250000B181ED91FC91C7010995C80FD91FF0CF9A
:10251000CE01DF91CF911F910F91FF90EF90089521
:102520000E9454120895DC01ED91FC910190F0811C
:10253000E02D099508950F931F93CF93DF93EC013E
:102540006DE00E9493128C01CE016AE00E9493120A
:10255000080F191FC801DF91CF911F910F910895A6
:102560000F931F93CF93DF93EC010E946D128C01A8
:10257000CE010E949B12080F191FC801DF91CF9155
:102580001F910F9108950F931F93CF93DF93EC0149
:102590000E9454128C01CE010E949B12080F191F39
:1025A000C801DF91CF911F910F9108950F931F9351
:1025B000CF93DF93EC010E9493128C01CE010E9415
:1025C0009B12080F191FC801DF91CF911F910F9126
:1025D00008958F929F92AF92BF92CF92DF92EF9227
:1025E000FF920F931F93DF93CF93CDB7DEB7A197E1
:1025F0000FB6F894DEBF0FBECDBF6C01042FE52FE0
:10260000CB01122F19A2223008F41AE021E2E22EA7
:10261000F12CEC0EFD1E812E9924AA24BB2403C0AC
:10262000022FE32FCA01602F7E2FA50194010E9483
:102630006D13129F802D1124081B0894E108F108E6
:102640000A3014F4005D01C0095CF7010083211514
:1026500031054105510521F7C601B7010E94541209
:10266000A1960FB6F894DEBF0FBECDBFCF91DF911C
:102670001F910F91FF90EF90DF90CF90BF90AF90A0
:102680009F908F9008952115310549F4DC01ED915B
:10269000FC910190F081E02D642F099508950E942E
:1026A000E91208950F931F93CF93DF93EC010E94DB
:1026B00043138C01CE010E949B12080F191FC80101
:1026C000DF91CF911F910F9108959A01462F50E00D
:1026D00060E070E00E9443130895A1E21A2EAA1B45
:1026E000BB1BFD010DC0AA1FBB1FEE1FFF1FA217C2
:1026F000B307E407F50720F0A21BB30BE40BF50BBF
:10270000661F771F881F991F1A9469F76095709547
:10271000809590959B01AC01BD01CF010895EE0F0E
:10272000FF1F0590F491E02D0994911108958156B1
:102730008A5108F4805285580895FB01DC01059008
:0C2740000D920020E1F70895F894FFCFFF
:10274C0008200800270043757272656E74200044DF
:10275C00656661756C74200027206973206E6F7438
:10276C0020612076616C696420636F6D6D616E64AD
:10277C0020636861722E00131101FFFF000000003E
:0C278C0080102A12241053103710751012
:00000001FF
