:100000000C9401040C9429040C9429040C942904E4
:100010000C9429040C9429040C9429040C942904AC
:100020000C9429040C9429040C9429040C9429049C
:100030000C9429040C9429040C9429040C9429048C
:100040000C94470E0C9429040C94AD100C94E510FC
:100050000C9429040C9429040C9429040C9429046C
:100060000C9429040C94290441543930533233310F
:100070003300415439305332333333004154393033
:100080005332333433004154393053343433330032
:1000900041543930533434333400415439305338B7
:1000A00035313500415439305338353335004154FA
:1000B00074696E79313100415474696E793132005E
:1000C000415474696E79313300415474696E7931E9
:1000D0003500415474696E793233313300415474C0
:1000E000696E793433313300415474696E79323436
:1000F00000415474696E79343400415474696E79E6
:10010000383400415474696E793235004154746951
:100110006E79343500415474696E79383500415434
:1001200074696E79323600415474696E79323631B1
:1001300000415474696E7934363100415474696EEB
:100140007938363100415474696E7932380041543F
:1001500074696E79343800415474696E79383800A6
:1001600041546D656761383531350041546D6567BF
:1001700061383533350041546D656761380041544D
:100180006D656761384856410041546D656761315E
:10019000360041546D65676131364856410041541F
:1001A0006D65676131364856420041546D6567613F
:1001B00033320041546D656761333243310041543D
:1001C0006D65676133324856420041546D65676121
:1001D00036340041546D65676136346331004154F3
:1001E0006D6567613634484556320041546D656728
:1001F0006136346D310041546D65676131323800CC
:1002000041546D6567613132385246413100415485
:100210006D6567613136320041546D656761343810
:100220000041546D6567613438500041546D656715
:100230006138380041546D65676138385000415469
:100240006D6567613136380041546D6567613136DF
:1002500038500041546D6567613332380041546D48
:10026000656761313634410041546D6567613136EF
:1002700034500041546D656761333234410041545C
:100280006D656761333234500041546D6567613389
:10029000323450410041546D656761363434004159
:1002A000546D656761363434500041546D65676143
:1002B000363434524652320041546D6567613132F2
:1002C00038340041546D6567613132383450004133
:1002D000546D6567613132383452465232004154B0
:1002E0006D65676133323850000191FF010000688D
:1002F000000591FF01000072000391FF0100007CE6
:10030000000392FF01000086000292FF01000090AE
:10031000000193FF0100009A000393FF010000A475
:10032000000490FF010000AE000590FF010000B73F
:100330000007906A0200FFC0000690FF010000C99C
:10034000000A916403FFDFD2000D926403FFDFDD3A
:10035000000B916203FFDFE80007926203FFDFF109
:10036000000C936203FFDFFA0008916203FFDF03D2
:100370000106926203FFDF0C010B936203FFDF159E
:10038000010991410200F71E010C916203FFDF2772
:100390000108926203FFDF31010D936203FFDF3B2F
:1003A000010791FF010000450109926E03FFDF4E36
:1003B0000111936E03FFDF57010693C10200D9605C
:1003C000010893C10200D96B010793E10200D976BD
:1003D000010793DF0100007E010394E10200998987
:1003E000010C94DF01000092010D94DE0200E99EF1
:1003F000010295E1020099AA0186954103F9D9B35A
:10040000011095DE0200E9BE010296C103FF99CA00
:100410000186964103F9D9D3011096D60200F9DE80
:100420000184964103F9D9EB010297C103FD99F6C6
:10043000010197C103FD99000204946203FF990E24
:100440000205926203FFDF18020A926203FFDF21B6
:10045000020A936203FFDF2B020F936203F9DF347A
:100460000206946203F9DF3E020B946203FFDF4849
:100470000214956203FFD953020F944203FF995D62
:10048000020A944203FF99680215954203FF99738B
:100490000208954203FF997E0211954203FF998954
:1004A0000209966203FF9995020A966203FF999FDB
:1004B00002029600000000AA0206974203FF99B8C4
:1004C0000205974203FF99C302039700000000CF83
:1004D000020F956203FFD9DE0243757272656E7476
:1004E000206C6F636B20627974653A202020004C89
:1004F0002F482F452D46757365733A20004C2F48C1
:100500002D46757365733A2020200046757365206B
:10051000627974653A202020002E2E2E646F6E655D
:10052000000A4275726E696E67202E2E2E004E658F
:1005300077206C6F636B20627974653A20002E2EF1
:100540002E646F6E65000A4275726E696E67202EAA
:100550002E2E004E657720657874656E6465642084
:10056000667573653A20002E2E2E646F6E65000A44
:100570004275726E696E67202E2E2E004E657720B2
:100580006869676820667573653A20002E2E2E64B0
:100590006F6E65000A4275726E696E67202E2E2E90
:1005A000004E6577206C6F7720667573653A200082
:1005B0002E2E2E646F6E65000A4275726E696E672C
:1005C000202E2E2E002745726173652063686970A6
:1005D00027206973206E6F7420616C6C6F7765647F
:1005E000002E2E2E646F6E65000A45726173696E6F
:1005F00067202E2E2E00416374696F6E3A20002012
:10060000204B202D204368616E6765206C6F636B03
:10061000206279746500202058202D204368616E87
:10062000676520657874656E6465642066757365BA
:1006300000202048202D204368616E67652068698E
:10064000676820667573650020204C202D20436864
:10065000616E6765206C6F7720667573650020207A
:1006600044202D204275726E2064656661756C743D
:1006700020667573652076616C7565730020204572
:10068000202D20457261736520636869700043689E
:100690006F6F73653A0023206F662066757365205F
:1006A00062797465732028312D33293A2000556E04
:1006B0006B6E6F776E00202F20004D4355206E61CA
:1006C0006D653A2020005369676E61747572653AF2
:1006D000200027206973206E6F742076616C696436
:1006E0002063686F6963652E0043686F6963653ACC
:1006F0002000202058202D20657869740020205388
:10070000202D204856535000202054202D2048569C
:10071000505020666F722054696E7900202050205E
:100720002D20485650500043686F6F7365206672E5
:100730006F6D3A00496E736572742063686970204A
:10074000616E6420707265737320627574746F6E6D
:10075000206F7220676976652064657461696C73C7
:100760002E004E6F206368697020666F756E64217D
:1007700000202F206E6F6E2D696E74657261637438
:1007800069766500202F20696E74657261637469F3
:1007900076650052657363756541565220566572E1
:1007A00073696F6E200000000000240027002A00FB
:1007B00000000000250028002B000000000023009E
:1007C00026002900040404040404040402020202B2
:1007D0000202030303030303010204081020408004
:1007E0000102040810200102040810200000000784
:1007F00000020100000304060000000000000000E9
:10080000B01111241FBECFEFD8E0DEBFCDBF11E085
:10081000A0E0B1E0E8EFF6E202C005900D92A2354B
:10082000B107D9F712E0A2E5B1E001C01D92AB30EB
:10083000B107E1F718E0C2E0D8E004C02297FE015A
:100840000E946713C030D107C9F70E94F1110C94C0
:100850007A130C940000EF92FF920F931F939C0168
:10086000442755272E31310541055105D1F420E0AB
:1008700030E080709070F90143E0EE0FFF1F4A9561
:10088000E1F7E751FD4FE590F49000E010E06E15C0
:100890007F058007910739F02F5F3F4F2E333105D9
:1008A00051F72FEF3FEFC9011F910F91FF90EF908C
:1008B00008950F931F93DF93CF93CDB7DEB72F9794
:1008C0000FB6F894DEBF0FBECDBF8E339105B0F4E6
:1008D000FC0163E0EE0FFF1F6A95E1F7E151FD4F68
:1008E000259134918E010F5F1F4FC801B9010E94FD
:1008F000731389EE91E0B8010E9466122F960FB62D
:10090000F894DEBF0FBECDBFCF91DF911F910F9145
:1009100008958F92AF92CF92EF920F93DF93CF9380
:10092000CDB7DEB7FC01641711F491E0201390E01D
:10093000892FE230F10574F0992311F091E0EC1069
:1009400090E0892FE230F10529F0992311F081E040
:10095000A81080E0CF91DF910F91EF90CF90AF90F2
:100960008F900895CF93DF93EC018130910529F4A6
:100970008FE080933C0186E004C083E180933C01DA
:1009800081E180933D0115B814B880913C0160E08D
:100990000E94980F80913D0160E00E94980F80E1D5
:1009A00060E00E94980F8FE060E00E94980F86E060
:1009B00060E00E94980F84E060E00E94980F82E05F
:1009C00060E00E94980F64E670E080E090E00E9492
:1009D000C10EC230D10581F481E160E00E94980F20
:1009E00080E160E00E94980F8FE060E00E94980F25
:1009F0008EE061E00E945A0F85E060E00E94980F4F
:100A000080E590E00E94E80E87E061E00E94980F88
:100A1000C230D10541F481E090E00E94E80E8FE001
:100A200060E00E945A0F8AE090E00E94E80E82E0A7
:100A300061E00E94980F84E061E00E94980F61E0FD
:100A400070E080E090E00E94C10EDF91CF910895A8
:100A500015B814B882E061E00E94980F87E060E06A
:100A60000E94980F61E070E080E090E00E94C10E6B
:100A700082E060E00E94980F84E060E00E94980F9E
:100A800080913C0160E00E94980F80913D0160E000
:100A90000E94980F80E160E00E94980F8FE060E074
:100AA0000E94980F86E060E00E94980F85E061E068
:100AB0000E94980F089561E070E080E090E00E944D
:100AC000C10E8EE061E00E94980F61E070E080E06E
:100AD00090E00E94C10E8EE060E00E94980F0895A1
:100AE000EF92FF920F931F93CF93DF93082FE62E81
:100AF0008EE060E00E94980F81E160E00E94980F14
:100B000080E160E00E94980F0E945B05C0E0D0E0A9
:100B100010E0FF24C8010C2E02C0880F991F0A9410
:100B2000E2F787FF03C081E161E002C081E160E09C
:100B30000E94980FC7010C2E02C0880F991F0A94BB
:100B4000E2F787FF03C080E161E002C080E160E07E
:100B50000E94980F0E945B052196C830D105D1F6FE
:100B600081E160E00E94980F80E160E00E94980FB0
:100B70000E945B0581E160E00E94980F80E160E0E7
:100B80000E94980F0E945B05DF91CF911F910F91FA
:100B9000FF90EF900895CF93C82F6130710581F0D9
:100BA0006230710524F46115710541F037C062307F
:100BB0007105A9F06330710589F520C080E41FC07C
:100BC00080E46CE40E9470058C2F6CE20E9470053A
:100BD00080E064E70E94700580E06CE71DC080E45F
:100BE0006CE40E9470058C2F6CE20E94700580E01E
:100BF00066E60E94700580E06EE60EC080E26CE45E
:100C00000E9470058C2F6CE20E94700580E064E603
:100C10000E94700580E06CE60E9470058FE00E94E3
:100C2000D00F0097D9F3CF91089580E86CE40E942B
:100C3000700580E064E60E94700580E06CE60E942A
:100C400070058FE00E94D00F0097D9F30895BF92EE
:100C5000CF92DF92EF92FF920F931F93CF93DF9388
:100C6000E82EC62E8EE060E00E94980F81E160E0E1
:100C70000E94980F80E160E00E94980F0E945B053F
:100C80008FE00E94D00F8130910511F0BB2402C08B
:100C900070E8B72EC0E0D0E0FF24DD2400E410E0CF
:100CA00097010C2E02C0220F331F0A94E2F727FF90
:100CB00003C081E161E002C081E160E00E94980F21
:100CC00096010C2E02C0220F331F0A94E2F727FF71
:100CD00003C080E161E002C080E160E00E94980F03
:100CE0000E945B05C730D10571F08FE00E94D00FE4
:100CF0008130910541F498010C2E02C0359527955D
:100D00000A94E2F7B22A2196C830D10549F681E16A
:100D100060E00E94980F80E160E00E94980F0E94BE
:100D20005B0581E160E00E94980F80E160E00E9435
:100D3000980F0E945B058B2DDF91CF911F910F9132
:100D4000FF90EF90DF90CF90BF900895EF92FF92C9
:100D50000F931F93CF93C0E0EE24FF24870188E018
:100D60006CE40E9427068C2F6CE00E94270680E02E
:100D700068E60E942706102F0F2DFE2CEE2480E03F
:100D80006CE60E942706E80EF11C011D111DCF5FC5
:100D9000C33029F7B701C801CF911F910F91FF9080
:100DA000EF90089581309105A1F0823091051CF4F7
:100DB000009741F031C082309105B1F08330910548
:100DC00059F51DC084E06CE40E94270680E068E6C7
:100DD0001CC084E06CE40E94270680E06AE70E9461
:100DE000270680E06EE715C084E06CE40E942706C9
:100DF00080E06AE60E94270680E06EE60AC084E092
:100E00006CE40E94270680E068E70E94270680E0E5
:100E10006CE60E942706482F842F089561E070E059
:100E200080E090E00E94C10E83E061E00E94980F94
:100E300061E070E080E090E00E94C10E83E060E03D
:100E40000E94980F08951F93CF93DF93EC01142F06
:100E5000662321F080913D0161E003C080913D0156
:100E600060E00E94980F80E160E00E94980F8FE0A0
:100E700060E00E94980FC130D10521F086E060E06B
:100E80000E94980F15B98FEF84B90E940E0715B80C
:100E900014B880913D0160E00E94980FDF91CF91DE
:100EA0001F910895DF92EF92FF920F931F93CF93BC
:100EB000DF93EC0115B814B8DD24EE24FF2487017C
:100EC000CE0161E048E00E942307CE0160E04D2D95
:100ED0000E9423078FE060E00E94980F82E060E0AC
:100EE0000E94980F61E070E080E090E00E94C10EE7
:100EF000102F0F2DFE2CEE2483B1E80EF11C011DE6
:100F0000111D82E061E00E94980FD3948D2D8330F3
:100F1000B9F6B701C801DF91CF911F910F91FF90F2
:100F2000EF90DF9008958230910519F40E94A60693
:100F300008950E9452070895CF93DF93EB0161E07B
:100F400044E00E94230715B814B8C130D10581F0E0
:100F5000C230D1051CF4209741F01CC0C230D1052D
:100F600051F0C330D105B1F40DC086E060E005C09A
:100F700086E061E009C086E061E00E94980F8FE0A2
:100F800060E006C086E060E00E94980F8FE061E0BC
:100F90000E94980F82E060E00E94980F61E070E08C
:100FA00080E090E00E94C10EC3B182E061E00E9447
:100FB000980F8C2FDF91CF9108958230910521F405
:100FC000CB010E94D20608950E949C07089561E01B
:100FD00040E80E94230784E060E00E94980F61E0EF
:100FE00070E080E090E00E94C10E84E061E00E9429
:100FF000980F8EE00E94D00F0097D9F308958230A9
:10100000910519F40E94150608950E94E7070895B6
:10101000FF920F931F93CF93DF938C01F62EEA017B
:101020004330510519F461E040E202C061E040E460
:101030000E94230780913D0160E00E94980F80E1AB
:1010400061E00E94980F8FE060E00E94980F0130ED
:10105000110521F086E060E00E94980F61E070E0E9
:1010600080E090E00E94C10EF5B88FEF84B90E9435
:101070000E0715B814B8C130D10531F0C230D10512
:1010800069F0209721F012C08FE061E002C08FE08C
:1010900060E00E94980F86E060E006C08FE060E0AC
:1010A0000E94980F86E061E00E94980F61E070E076
:1010B00080E090E00E94C10E84E060E00E94980F02
:1010C00061E070E080E090E00E94C10E84E061E0A9
:1010D0000E94980F8EE00E94D00F0097D9F38FE006
:1010E00060E00E94980F86E060E00E94980FDF9118
:1010F000CF911F910F91FF9008958230910529F4AF
:10110000862FBA010E94CB0508950E940808089511
:10111000982F90539A3028F4282F30E020533040F5
:101120000BC0982F9154963028F4282F30E0275385
:10113000304002C020E030E0C9010895FF920F93D3
:101140001F93DF93CF9300D00F92CDB7DEB7FF246C
:101150008E010F5F1F4F89EE91E00E94FA0F0097FA
:10116000D1F389EE91E00E942910282F8F2D813034
:1011700069F4283011F02F3749F489EE91E060E0EE
:1011800071E02B830E946612FF242B81822F8156EF
:10119000863038F4822F992787FD90950E946B1333
:1011A000282F822F80538A3018F08151863050F4D6
:1011B000F801EF0DF11D2083F39489EE91E0622F89
:1011C0000E9469128F2D823030F289EE91E00E94E8
:1011D00071128A810E9488088C0189810E94880886
:1011E0009C01A4E0220F331FAA95E1F7200F311FC5
:1011F000C9010F900F900F90CF91DF911F910F9128
:10120000FF900895CF93DF93D82FC62F803128F415
:1012100089EE91E060E30E94691289EE91E06D2F02
:1012200040E150E00E943B13CC2329F089EE91E08D
:1012300060E20E946912DF91CF9108951F93CF93CE
:10124000DF93182FC9EED1E0CE0169ED74E00E9462
:101250004312812F61E00E940209CE010E947112A7
:10126000DF91CF911F9108950F931F93CF93DF9339
:10127000FC01C62FD42F122F89EE91E0BF010E94EE
:101280006612C23049F0C33061F0C13081F489EE9A
:1012900091E06BE075E009C089EE91E06DEF74E0DC
:1012A00004C089EE91E06FEE74E00E9443128D2F2E
:1012B00061E00E940209C23050F0812F61E00E947B
:1012C0000209C23021F0802F61E00E94020989EEFC
:1012D00091E00E947112DF91CF911F910F910895BB
:1012E000009721F08130910559F405C080E161E05B
:1012F0000E94980F089580913D0161E00E94980F2F
:101300000895009721F08130910559F405C080E1DE
:1013100060E00E94980F089580913D0160E00E9476
:10132000980F0895CF9315B814B882E162E00E9437
:101330005A0F85E061E00E945A0F8EE060E00E9443
:101340005A0F82E061E00E945A0F84E061E00E943F
:101350005A0F8FE061E00E945A0F80E161E00E9425
:101360005A0F80913D0161E00E945A0F80913C012B
:1013700061E00E945A0F87E061E00E945A0F86E008
:1013800061E00E945A0F83E061E00E945A0F80E002
:101390000E94D00F009711F410923E0187E060E0A8
:1013A0000E94980F85E061E00E94980F89EE91E01D
:1013B00040E05BE460E070E00E94201189EE91E083
:1013C0000E94711289EE91E00E94711289EE91E003
:1013D00063E977E00E94431289EE91E064E071E0F6
:1013E0000E94661280913E01882329F089EE91E0E7
:1013F00064E877E004C089EE91E061E777E00E945D
:10140000861289EE91E00E9471121092520127C05B
:1014100090E00E94B2048091520190E00E949307F4
:101420006093540170935501809356019093570136
:101430000E9428058091540190915501A091560178
:10144000B0915701CD01AA27BB278E319105A10587
:10145000B10549F0809152018F5F809352018091D4
:1014600052018330A8F280915201833008F48DC07C
:1014700089EE91E062E677E00E94861289EE91E0C3
:1014800064E377E00E94861280913E01882399F4FC
:1014900080E090E00E94700968EB7BE080E090E0E3
:1014A0000E94C10E80E090E00E948109FFCF89EE8A
:1014B00091E00E94291089EE91E00E94FA0F0097B6
:1014C000B1F789EE91E00E94711289EE91E067E236
:1014D00077E00E94861289EE91E06CE177E00E944D
:1014E000861289EE91E068E077E00E94861289EE2C
:1014F00091E06DEF76E00E94861289EE91E062EF56
:1015000076E00E94861289EE91E069EE76E00E9414
:10151000431289EE91E00E94FA0F0097D1F389EE11
:1015200091E00E9429100E946B13C82F89EE91E070
:101530006C2F0E94AC1204C089EE91E00E94291029
:1015400089EE91E00E94FA0F0097B1F7C03509F4D7
:101550000EC1C435B9F0C33509F40CC1C835A1F0CA
:1015600089EE91E069E071E00E94661289EE91E0F7
:101570006C2F0E94691289EE91E062ED76E00E9484
:1015800086129FCF81E0F7C0FFCF89EE91E066EC35
:1015900076E00E94431240915401509155016091B0
:1015A00056017091570189EE91E020E130E00E94F0
:1015B00028136091540170915501809156019091CA
:1015C00057010E942B049093400180933F0189EEC4
:1015D00091E06AEB76E00E94431280913F01909186
:1015E000400197FD2FC0FC01C3E0EE0FFF1FCA951D
:1015F000E1F7E551FD4F25913491432F50E041151E
:10160000510501F50E94590489EE91E066EB76E000
:101610000E94431280913E01882371F481E090E0A2
:101620000E9470096CED75E080E090E00E94C10EB0
:1016300081E090E00E9481098FEF9FEF909340013D
:1016400080933F0180913F019091400197FF62C0DC
:1016500089EE91E06EEA76E00E94861280913E016A
:10166000882379F480E090E00E94700968EB7BE0C9
:1016700080E090E00E94C10E80E090E00E9481092D
:10168000FFCF80E090E00E9470096CED75E080E093
:1016900090E00E94C10E80E090E00E9481091092CB
:1016A000530104C089EE91E00E94291089EE91E077
:1016B0000E94FA0F0097B1F727C089EE91E066E922
:1016C00076E00E94431289EE91E00E94FA0F0097A3
:1016D000D1F389EE91E00E942910682F8093530185
:1016E00089EE91E00E94AC1204C089EE91E00E9464
:1016F000291089EE91E00E94FA0F0097B1F78091CE
:101700005301805380935301809153018150833062
:10171000A0F634C00E94590489EE91E00E94711233
:10172000E0913F01F0914001B3E0EE0FFF1FBA9549
:10173000E1F7E551FD4F859194919093530181E03C
:1017400090E00E94700980913E01882329F06CEDA1
:1017500075E080E090E004C068EB7BE080E090E022
:101760000E94C10E81E090E00E94810907C01092A2
:1017700052010BCF82E08093520107CFCF910895A1
:10178000EF92FF920F931F93CF93DF937C01EB01B6
:10179000CC0FDD1FCC0FDD1FC60FD71F00E010E000
:1017A00014C0C7010E94700964E670E080E090E018
:1017B0000E94C10EC7010E94810964E670E080E0CA
:1017C00090E00E94C10E0F5F1F4F0C171D074CF3D6
:1017D000DF91CF911F910F91FF90EF9008958F921D
:1017E0009F92AF92CF92EF920F931F93CF93DF937D
:1017F00080913F019091400197FD10C043E0880F18
:10180000991F4A95E1F7FC01E551FD4FC591D4912F
:1018100083519D4FFC0185909490C92C8091520179
:1018200090E00E94B2048091520190E060E070E08C
:101830000E94DD07182F80915301823040F0809183
:10184000520190E061E070E00E94DD07E82E809197
:101850005301833040F08091520190E062E070E0EB
:101860000E94DD07A82E8091520190E063E070E0B5
:101870000E94DD07D82F0E9428058BE091E060913F
:101880005301412F2E2D0A2D0E94340920913F0132
:101890003091400137FD09C084E191E0609153012E
:1018A0004C2F2C2D082D0E9434098D2F0E941E09CB
:1018B00080913E01882309F461C189EE91E00E9484
:1018C000711289EE91E06EE876E00E94861289EE50
:1018D00091E06DE776E00E94861280913F01909141
:1018E000400197FD06C089EE91E06EE576E00E942A
:1018F000861289EE91E068E476E00E94861280917B
:101900005301823030F089EE91E061E376E00E948D
:10191000861280915301833030F089EE91E066E1C8
:1019200076E00E94861289EE91E06FEF75E00E94EA
:10193000861289EE91E066EF75E00E94431289EE0F
:1019400091E00E94FA0F0097D1F389EE91E00E9496
:1019500029100E946B13D82F89EE91E06D2F0E9401
:10196000AC128D2F84548230D0F0DC34C1F0D834E6
:10197000B1F0D835A1F0DB3491F089EE91E069E067
:1019800071E00E94661289EE91E06D2F0E9469124B
:1019900089EE91E06DE171E00E9499128ECF809105
:1019A000520190E00E94B204D83409F479C0D934CD
:1019B00034F4D43441F1D53409F0D0C00AC0DC3459
:1019C00009F452C0D83509F48CC0DB3409F0C6C024
:1019D000A8C082E10E94D00F009781F489EE91E0C7
:1019E00069EE75E00E9486128091520190E00E949B
:1019F000FF0789EE91E061EE75E0AEC089EE91E0FF
:101A000065EC75E0A9C080913F019091400197FD80
:101A1000A5C089EE91E068EB75E00E948612809186
:101A2000520190E06C2F40E050E00E947D088091D0
:101A30005301823040F08091520190E06C2D41E0E2
:101A400050E00E947D0880915301833040F08091E6
:101A5000520190E0682D42E050E00E947D0889EE3E
:101A600091E060EB75E078C089EE91E061EA75E0A5
:101A70000E9443120E949E08C82F89EE91E064E9FB
:101A800075E00E9486128091520190E06C2F40E038
:101A900050E00E947D0889EE91E06CE875E05CC042
:101AA00080915301823008F459C089EE91E06CE7CF
:101AB00075E00E9443120E949E08C82F89EE91E0B3
:101AC0006FE675E00E9486128091520190E06C2FC3
:101AD00041E050E00E947D0889EE91E067E675E004
:101AE0003BC0809153018330C8F189EE91E063E5FA
:101AF00075E00E9443120E949E08C82F89EE91E073
:101B000066E475E00E9486128091520190E06C2F8D
:101B100042E050E00E947D0889EE91E06EE375E0BE
:101B20001BC089EE91E06EE275E00E9443120E94B4
:101B30009E08C82F89EE91E061E275E00E9486124E
:101B40008091520190E06C2F43E050E00E947D08AC
:101B500089EE91E069E175E00E94861289EE91E0DC
:101B60000E9471120E942805DF91CF911F910F9161
:101B7000EF90CF90AF909F908F90089580915201F9
:101B800090E00E94B2048091520190E06FEF43E038
:101B900050E00E947D088091520190E063E070E087
:101BA0000E94DD078F3F51F082E10E94D00F009725
:101BB00029F48091520190E00E94FF078091520128
:101BC00090E06C2F40E050E00E947D08809153012E
:101BD000823040F08091520190E06C2D41E050E065
:101BE0000E947D0880915301833040F08091520122
:101BF00090E0682D42E050E00E947D0864E670E0CD
:101C000080E090E00E94C10E8091520190E063E07C
:101C100070E00E94DD07182F8091520190E060E093
:101C200070E00E94DD07D82F80915301823040F090
:101C30008091520190E061E070E00E94DD07E82EA3
:101C400080915301833040F08091520190E062E036
:101C500070E00E94DD07A82E0E94280580915301A4
:101C600090E0612F4FEF2D2F0C2F0E9489048823C5
:101C700039F081E090E065E070E00E94C00B06C0A2
:101C800080E090E065E070E00E94C00BFFCF1F9203
:101C90000F920FB60F9211242F933F934F935F93A0
:101CA0006F937F938F939F93AF93BF9320915C012A
:101CB00030915D0140915E0150915F017091600132
:101CC000DA01C9010296A11DB11D672F6A5F6D3748
:101CD00030F06D57DA01C9010396A11DB11D609363
:101CE000600180935C0190935D01A0935E01B093CD
:101CF0005F018091580190915901A0915A01B091D2
:101D00005B010196A11DB11D80935801909359016B
:101D1000A0935A01B0935B01BF91AF919F918F91B6
:101D20007F916F915F914F913F912F910F900FBED7
:101D30000F901F9018959FB7F894209158013091FB
:101D4000590140915A0150915B0186B5A89B06C08C
:101D50008F3F21F02F5F3F4F4F4F5F4F9FBF542F5B
:101D6000432F322F2227280F311D411D511D83E0A3
:101D7000220F331F441F551F8A95D1F7B901CA019D
:101D80000895EF92FF920F931F93CF93DF937B0100
:101D90008C010E949B0EEB010FC00E949B0E6C1BDE
:101DA0007D0B83E0683E780738F00894E108F1087D
:101DB00001091109C851DC4FE114F10401051105B5
:101DC00061F7DF91CF911F910F91FF90EF900895F0
:101DD000019739F0019729F0880F991F0197019712
:101DE000F1F70895789484B5826084BD84B58160EC
:101DF00084BD85B5826085BD85B5816085BDEEE613
:101E0000F0E0808181608083E1E8F0E010828081F1
:101E100082608083808181608083E0E8F0E080815F
:101E200081608083E1EBF0E0808184608083E0EB7F
:101E3000F0E0808181608083EAE7F0E08081846067
:101E400080838081826080838081816080838081C3
:101E5000806880831092C1000895833071F08430CF
:101E600028F48130A1F0823021F514C08630B1F021
:101E70008730D1F08430E9F404C0809180008F77FE
:101E800003C0809180008F7D80938000089584B589
:101E90008F7702C084B58F7D84BD08958091B00096
:101EA0008F778093B00008958091B0008F7D8093EC
:101EB000B0000895CF93DF9390E0FC01E852F84F13
:101EC00044918C53984FFC018491882371F190E0E8
:101ED000880F991FFC01EA55F84F25913491D901DB
:101EE0008055984FFC0125913491C22FD32F662342
:101EF00049F49FB7F8948C91409584238C93888102
:101F000084230BC0623059F49FB7F8948C91242F2E
:101F1000209582238C938881842B888305C09FB76A
:101F2000F8948C91842B8C939FBFDF91CF9108956F
:101F30000F931F93DF93CF930F92CDB7DEB7282F68
:101F400030E0F901E451F84F8491F901E852F84F7B
:101F500014912C53384FF90104910023D9F08823B0
:101F600021F069830E942D0F6981E02FF0E0EE0FD0
:101F7000FF1FE055F84F85919491DC019FB7F894CD
:101F8000662321F48C911095812302C08C91812BC2
:101F90008C939FBF0F90CF91DF911F910F91089568
:101FA000CF93DF93282F30E0F901E451F84F84916B
:101FB000F901E852F84FD4912C53384FF901C491EC
:101FC000CC2391F0882311F00E942D0FEC2FF0E02C
:101FD000EE0FFF1FE654F84F85919491DC018C9130
:101FE0008D2321E030E011F420E030E0C901DF91E1
:101FF000CF910895FC0184859585FC01E05CFF4F3D
:10200000208131818E5B9F4FFC0180819181281B53
:10201000390B2F733070C9010895FC0184859585B3
:10202000FC01E05CFF4F40815181FC01EE5BFF4F02
:10203000208131814217530741F00190F081E02D5A
:10204000E80FF91F208130E002C02FEF3FEFC901F8
:102050000895FC0184859585FC01E05CFF4F40817B
:102060005181FC01EE5BFF4F208131814217530704
:1020700071F0A081B181A80FB91F2C91808191814D
:1020800001968F7390709183808330E002C02FEFB0
:102090003FEFC9010895FC0181A1882329F0A4899B
:1020A000B5898C9186FFFBCF11A20895FC0126858E
:1020B0003785D901A05CBF4F8D919C9101968F739C
:1020C0009070D901AE5BBF4F4D915C911197841711
:1020D0009507D1F3D901A05CBF4F0D90BC91A02D05
:1020E000A20FB31F6C93A685B785A05CBF4F119656
:1020F0009C938E93A689B7892C9181E090E0078C00
:1021000002C0880F991F0A94E2F7282B2C9381E0D4
:1021100081A30488F589E02D80818064808381E03B
:1021200090E00895FB01E05CFF4F208131812F5F3B
:102130003F4F2F733070DB01AE5BBF4F4D915C9111
:1021400011972417350739F0A081B181A60FB71F69
:102150008C9331832083089508951F920F920FB6B8
:102160000F9211242F933F934F935F936F937F931D
:102170008F939F93AF93BF93EF93FF938091C00092
:1021800082FD07C08091C60061E671E00E94921056
:1021900002C08091C600FF91EF91BF91AF919F91D6
:1021A0008F917F916F915F914F913F912F910F9000
:1021B0000FBE0F901F90189589EE91E00E94FA0FC4
:1021C000009711F00E94AC1008951F920F920FB665
:1021D0000F9211242F933F938F939F93EF93FF932D
:1021E0002091E5013091E6018091E7019091E801AD
:1021F0002817390731F48091C1008F7D8093C10089
:1022000014C0E091E701F091E801EB55FE4F208109
:102210008091E7019091E80101968F7390709093FF
:10222000E8018093E7012093C600FF91EF919F9111
:102230008F913F912F910F900FBE0F901F90189587
:102240009F92AF92BF92CF92DF92EF92FF920F9345
:102250001F93CF93DF93EC017A018B019924939420
:10226000EC89FD8981E090E008A002C0880F991FE9
:102270000A94E2F7808360E874E88EE190E0A801B8
:1022800097010E94431321503040404050405695E2
:1022900047953795279590E4A92E92E4B92E9FE0B3
:1022A000C92ED12C12C09924EC89FD891082C60157
:1022B000B501A80197010E944313215030404040CE
:1022C0005040569547953795279580E1203038073F
:1022D00010F0992041F7E889F9893083EA89FB8970
:1022E000208319A2EE89FF89408181E090E09C0162
:1022F0000C8C02C0220F331F0A94E2F7422B40835A
:10230000EE89FF8940819C010D8C02C0220F331F92
:102310000A94E2F7422B4083EE89FF8940819C01B9
:102320000E8C02C0220F331F0A94E2F7422B408327
:10233000EE89FF8920810F8C02C0880F991F0A94B3
:10234000E2F7809582238083DF91CF911F910F91D7
:10235000FF90EF90DF90CF90BF90AF909F90089547
:102360001092EC011092EB0188EE93E0A0E0B0E057
:102370008093ED019093EE01A093EF01B093F001F3
:10238000EBEEF1E085E491E09293829381E691E0B7
:102390009587848785EA91E09787868785EC90E02A
:1023A000918B808B84EC90E0938B828B80EC90E01F
:1023B000958B848B81EC90E0978B868B82EC90E000
:1023C000918F808F86EC90E0938F828F84E0848F52
:1023D00083E0858F87E0868F85E0878F81E080A30B
:1023E0000895CF93DF930E94F20E0E949209CCEDE4
:1023F000D0E10E94EF0B2097E1F30E94DC10F9CFAF
:10240000CF92DF92EF92FF920F931F93CF93DF93C0
:102410006C017B018A01C0E0D0E00FC0D7016D9153
:102420007D01D601ED91FC910190F081E02DC60176
:102430000995C80FD91F015010400115110571F7FA
:10244000CE01DF91CF911F910F91FF90EF90DF9020
:10245000CF9008956115710591F0DB010D9000207A
:10246000E9F7AD0141505040461B570BDC01ED919F
:10247000FC910280F381E02D09959C0102C020E0CF
:1024800030E0C9010895EF92FF920F931F93CF930D
:10249000DF937C01062F172FC0E0D0E0F8010F5F1B
:1024A0001F4F6491662351F0F701A081B181ED9136
:1024B000FC91C7010995C80FD91FF0CFCE01DF915C
:1024C000CF911F910F91FF90EF9008950E942A12D3
:1024D0000895DC01ED91FC910190F081E02D0995CA
:1024E00008950F931F93CF93DF93EC016DE00E944B
:1024F00069128C01CE016AE00E946912080F191F4F
:10250000C801DF91CF911F910F9108950F931F93F1
:10251000CF93DF93EC010E9443128C01CE010E9405
:102520007112080F191FC801DF91CF911F910F91F0
:1025300008950F931F93CF93DF93EC010E942A120B
:102540008C01CE010E947112080F191FC801DF9182
:10255000CF911F910F9108950F931F93CF93DF9306
:10256000EC010E9469128C01CE010E947112080FC9
:10257000191FC801DF91CF911F910F9108958F927C
:102580009F92AF92BF92CF92DF92EF92FF920F9302
:102590001F93DF93CF93CDB7DEB7A1970FB6F89413
:1025A000DEBF0FBECDBF6C01042FE52FCB01122F74
:1025B00019A2223008F41AE021E2E22EF12CEC0EEE
:1025C000FD1E812E9924AA24BB2403C0022FE32FD1
:1025D000CA01602F7E2FA50194010E944313129F10
:1025E000802D1124081B0894E108F1080A3014F426
:1025F000005D01C0095CF70100832115310541052B
:10260000510521F7C601B7010E942A12A1960FB603
:10261000F894DEBF0FBECDBFCF91DF911F910F9118
:10262000FF90EF90DF90CF90BF90AF909F908F90F2
:1026300008952115310549F4DC01ED91FC910190DB
:10264000F081E02D642F099508950E94BF1208952E
:102650000F931F93CF93DF93EC010E9419138C010A
:10266000CE010E947112080F191FC801DF91CF918E
:102670001F910F9108959A01462F50E060E070E09D
:102680000E9419130895A1E21A2EAA1BBB1BFD017B
:102690000DC0AA1FBB1FEE1FFF1FA217B307E40741
:1026A000F50720F0A21BB30BE40BF50B661F771F99
:1026B000881F991F1A9469F7609570958095909579
:1026C0009B01AC01BD01CF010895EE0FFF1F0590E6
:1026D000F491E02D09949111089581568A5108F4DE
:1026E000805285580895FB01DC0105900D92002071
:0826F000E1F70895F894FFCF13
:1026F80008200800302E39320027004375727265B1
:102708006E74200044656661756C7420002720692A
:1027180073206E6F7420612076616C696420636F2A
:102728006D6D616E6420636861722E00131101FF84
:10273800FF0000000056100012FA0F29100D104B70
:0227480010007F
:00000001FF
