:100000000C9453040C947B040C947B040C947B049C
:100010000C947B040C947B040C947B040C947B0464
:100020000C947B040C947B040C947B040C947B0454
:100030000C947B040C947B040C947B040C947B0444
:100040000C94CB0E0C947B040C9431110C9469111C
:100050000C947B040C947B040C947B040C947B0424
:100060000C947B040C947B0441543930533233316B
:100070003300415439305332333333004154393033
:100080005332333433004154393053343433330032
:1000900041543930533434333400415439305338B7
:1000A00035313500415439305338353335004154FA
:1000B00074696E79313100415474696E793132005E
:1000C000415474696E79313300415474696E7931E9
:1000D0003500415474696E793233313300415474C0
:1000E000696E793433313300415474696E79323436
:1000F00000415474696E79343400415474696E79E6
:10010000383400415474696E793235004154746951
:100110006E79343500415474696E79383500415434
:1001200074696E79323600415474696E79323631B1
:1001300000415474696E7934363100415474696EEB
:100140007938363100415474696E7932380041543F
:1001500074696E79343800415474696E79383800A6
:1001600041546D656761383531350041546D6567BF
:1001700061383533350041546D656761380041544D
:100180006D656761384856410041546D656761315E
:10019000360041546D65676131364856410041541F
:1001A0006D65676131364856420041546D6567613F
:1001B00033320041546D656761333243310041543D
:1001C0006D65676133324856420041546D65676121
:1001D00036340041546D65676136346331004154F3
:1001E0006D6567613634484556320041546D656728
:1001F0006136346D310041546D65676131323800CC
:1002000041546D6567613132385246413100415485
:100210006D6567613136320041546D656761343810
:100220000041546D6567613438500041546D656715
:100230006138380041546D65676138385000415469
:100240006D6567613136380041546D6567613136DF
:1002500038500041546D6567613332380041546D48
:10026000656761313634410041546D6567613136EF
:1002700034500041546D656761333234410041545C
:100280006D656761333234500041546D6567613389
:10029000323450410041546D656761363434004159
:1002A000546D656761363434500041546D65676143
:1002B000363434524652320041546D6567613132F2
:1002C00038340041546D6567613132383450004133
:1002D000546D6567613132383452465232004154B0
:1002E0006D65676133323850000191FF010000688D
:1002F000000591FF01000072000391FF0100007CE6
:10030000000392FF01000086000292FF01000090AE
:10031000000193FF0100009A000393FF010000A475
:10032000000490FF010000AE000590FF010000B73F
:100330000007906A0200FFC0000690FF010000C99C
:10034000000A916403FFDFD2000D926403FFDFDD3A
:10035000000B916203FFDFE80007926203FFDFF109
:10036000000C936203FFDFFA0008916203FFDF03D2
:100370000106926203FFDF0C010B936203FFDF159E
:10038000010991410200F71E010C916203FFDF2772
:100390000108926203FFDF31010D936203FFDF3B2F
:1003A000010791FF010000450109926E03FFDF4E36
:1003B0000111936E03FFDF57010693C10200D9605C
:1003C000010893C10200D96B010793E10200D976BD
:1003D000011093DF0100007E010394E1020099897E
:1003E000010C94DF01000092010D94DE0200E99EF1
:1003F000010295E1020099AA0186954103F9D9B35A
:10040000011095DE0200E9BE010296C103FF99CA00
:100410000186964103F9D9D3011096D60200F9DE80
:100420000184964103F9D9EB010297C103FD99F6C6
:10043000010197C103FD99000204946203FF990E24
:100440000205926203FFDF18020A926203FFDF21B6
:10045000020A936203FFDF2B020F936203F9DF347A
:100460000206946203F9DF3E020B946203FFDF4849
:100470000214956203FFD953020F944203FF995D62
:10048000020A944203FF99680215954203FF99738B
:100490000208954203FF997E0211954203FF998954
:1004A0000209966203FF9995020A966203FF999FDB
:1004B00002029600000000AA0206974203FF99B8C4
:1004C0000205974203FF99C302039700000000CF83
:1004D000020F956203FFD9DE0243757272656E7476
:1004E000206C6F636B20627974653A202020004C89
:1004F0002F482F452D46757365733A20004C2F48C1
:100500002D46757365733A2020200046757365206B
:10051000627974653A202020004279652C20627946
:1005200065202E2E2E002D3E20756E73756363653B
:10053000737366756C002D3E20737563636573730A
:1005400066756C00566572696679206675736520FC
:1005500073657474696E67732E2E2E005365742054
:10056000667573657320746F2064656661756C745D
:100570002076616C7565732E2E2E00457261736551
:100580002063686970202E2E2E00526573657420DA
:100590006C6F636B73202D20696620706F737369B5
:1005A000626C652E2E2E0053746172742070726F0F
:1005B0006772616D6D696E672E2E2E002E2E2E6471
:1005C0006F6E65000A4275726E696E67202E2E2E60
:1005D000004E6577206C6F636B20627974653A20FA
:1005E000002E2E2E646F6E65000A4275726E696E63
:1005F00067202E2E2E004E657720657874656E6418
:10060000656420667573653A20002E2E2E646F6E29
:1006100065000A4275726E696E67202E2E2E004E9E
:100620006577206869676820667573653A20002ED3
:100630002E2E646F6E65000A4275726E696E6720B9
:100640002E2E2E004E6577206C6F772066757365B1
:100650003A20002E2E2E646F6E65000A4275726E6F
:10066000696E67202E2E2E00274572617365206308
:1006700068697027206973206E6F7420616C6C6FDD
:10068000776564002E2E2E646F6E65000A457261D8
:1006900073696E67202E2E2E00416374696F6E3A67
:1006A000200020204B202D204368616E6765206C60
:1006B0006F636B206279746500202058202D2043E1
:1006C00068616E676520657874656E646564206630
:1006D00075736500202048202D204368616E676592
:1006E000206869676820667573650020204C202D9E
:1006F000204368616E6765206C6F7720667573654F
:1007000000202044202D204275726E2064656661B1
:10071000756C7420667573652076616C7565730001
:10072000202045202D204572617365206368697023
:100730000043686F6F73653A0023206F662066750B
:1007400073652062797465732028312D33293A202E
:1007500000556E6B6E6F776E00202F20004D435555
:10076000206E616D653A2020005369676E61747573
:1007700072653A200027206973206E6F74207661BD
:100780006C69642063686F6963652E0043686F69F4
:1007900063653A2000202058202D20657869740078
:1007A000202053202D204856535000202054202D27
:1007B000204856505020666F722054696E79002090
:1007C0002050202D20485650500043686F6F7365AD
:1007D0002066726F6D3A00496E73657274206368AB
:1007E000697020616E642070726573732062757425
:1007F000746F6E206F72206769766520646574611E
:10080000696C732E004E6F206368697020666F7587
:100810006E642100202F206E6F6E2D696E746572DC
:1008200061637469766500202F20696E746572615A
:10083000637469766500526573637565415652202D
:1008400056657273696F6E20000000000024002757
:10085000002A0000000000250028002B00000000F6
:1008600000230026002900040404040404040402F4
:10087000020202020203030303030301020408103D
:10088000204080010204081020010204081020000A
:100890000000070002010000030406000000000041
:1008A00000000000341211241FBECFEFD8E0DEBFDD
:1008B000CDBF11E0A0E0B1E0E0E0F8E202C00590B9
:1008C0000D92A235B107D9F712E0A2E5B1E001C05F
:1008D0001D92AB30B107E1F718E0C6EAD8E004C0DA
:1008E0002297FE010E94EB13C43AD107C9F70E9478
:1008F00075120C94FE130C940000EF92FF920F936C
:100900001F939C01442755272E3131054105510580
:10091000D1F420E030E080709070F90143E0EE0FF8
:10092000FF1F4A95E1F7E751FD4FE590F49000E095
:1009300010E06E157F058007910739F02F5F3F4F5C
:100940002E33310551F72FEF3FEFC9011F910F9162
:10095000FF90EF9008950F931F93DF93CF93CDB740
:10096000DEB72F970FB6F894DEBF0FBECDBF8E3324
:100970009105B0F4FC0163E0EE0FFF1F6A95E1F70B
:10098000E151FD4F259134918E010F5F1F4FC8013A
:10099000B9010E94F71389EE91E0B8010E94EA12B2
:1009A0002F960FB6F894DEBF0FBECDBFCF91DF916B
:1009B0001F910F9108958F92AF92CF92EF920F9364
:1009C000DF93CF93CDB7DEB7FC01641711F491E04C
:1009D000201390E0892FE230F10574F0992311F093
:1009E00091E0EC1090E0892FE230F10529F0992395
:1009F00011F081E0A81080E0CF91DF910F91EF908E
:100A0000CF90AF908F900895CF93DF93EC0181301A
:100A1000910529F48FE080933C0186E004C083E1D6
:100A200080933C0181E180933D0115B814B8809119
:100A30003C0160E00E941C1080913D0160E00E943A
:100A40001C1080E160E00E941C108FE060E00E94BA
:100A50001C1086E060E00E941C1084E060E00E94B0
:100A60001C1082E060E00E941C1064E670E080E0F0
:100A700090E00E94450FC230D10581F481E160E031
:100A80000E941C1080E160E00E941C108FE060E07A
:100A90000E941C108EE061E00E94DE0F85E060E0A5
:100AA0000E941C1080E590E00E946C0F87E061E0DE
:100AB0000E941C10C230D10541F481E090E00E94F8
:100AC0006C0F8FE060E00E94DE0F8AE090E00E94F1
:100AD0006C0F82E061E00E941C1084E061E00E94E3
:100AE0001C1061E070E080E090E00E94450FDF9113
:100AF000CF91089515B814B883E180933C0181E14A
:100B000080933D0182E061E00E941C1087E060E07C
:100B10000E941C1061E070E080E090E00E94450FB0
:100B200082E060E00E941C1084E060E00E941C10E3
:100B300080913C0160E00E941C1080913D0160E0CA
:100B40000E941C1080E160E00E941C108FE060E0B9
:100B50000E941C1086E060E00E941C1085E061E0AD
:100B60000E941C10089561E070E080E090E00E9417
:100B7000450F8EE061E00E941C1061E070E080E0B3
:100B800090E00E94450F8EE060E00E941C100895E6
:100B9000EF92FF920F931F93CF93DF93082FE62ED0
:100BA0008EE060E00E941C1081E160E00E941C1059
:100BB00080E160E00E941C100E94B305C0E0D0E01C
:100BC00010E0FF24C8010C2E02C0880F991F0A9460
:100BD000E2F787FF03C081E161E002C081E160E0EC
:100BE0000E941C10C7010C2E02C0880F991F0A9486
:100BF000E2F787FF03C080E161E002C080E160E0CE
:100C00000E941C100E94B3052196C830D105D1F670
:100C100081E160E00E941C1080E160E00E941C10F5
:100C20000E94B30581E160E00E941C1080E160E059
:100C30000E941C100E94B305DF91CF911F910F916C
:100C4000FF90EF900895CF93C82F6130710581F028
:100C50006230710524F46115710541F037C06230CE
:100C60007105A9F06330710589F520C080E41FC0CB
:100C700080E46CE40E94C8058C2F6CE20E94C805D9
:100C800080E064E70E94C80580E06CE71DC080E456
:100C90006CE40E94C8058C2F6CE20E94C80580E0BD
:100CA00066E60E94C80580E06EE60EC080E26CE455
:100CB0000E94C8058C2F6CE20E94C80580E064E6A3
:100CC0000E94C80580E06CE60E94C8058FE00E9483
:100CD00054100097D9F3CF91089580E86CE40E94F6
:100CE000C80580E064E60E94C80580E06CE60E94CA
:100CF000C8058FE00E9454100097D9F30895BF9261
:100D0000CF92DF92EF92FF920F931F93CF93DF93D7
:100D1000E82EC62E8EE060E00E941C1081E160E0AB
:100D20000E941C1080E160E00E941C100E94B3052C
:100D30008FE00E9454108130910511F0BB2402C055
:100D400070E8B72EC0E0D0E0FF24DD2400E410E01E
:100D500097010C2E02C0220F331F0A94E2F727FFDF
:100D600003C081E161E002C081E160E00E941C10EB
:100D700096010C2E02C0220F331F0A94E2F727FFC0
:100D800003C080E161E002C080E160E00E941C10CD
:100D90000E94B305C730D10571F08FE00E94541056
:100DA0008130910541F498010C2E02C035952795AC
:100DB0000A94E2F7B22A2196C830D10549F681E1BA
:100DC00060E00E941C1080E160E00E941C100E9404
:100DD000B30581E160E00E941C1080E160E00E94A8
:100DE0001C100E94B3058B2DDF91CF911F910F91A5
:100DF000FF90EF90DF90CF90BF900895EF92FF9219
:100E00000F931F93CF93C0E0EE24FF24870188E067
:100E10006CE40E947F068C2F6CE00E947F0680E0CD
:100E200068E60E947F06102F0F2DFE2CEE2480E036
:100E30006CE60E947F06E80EF11C011D111DCF5FBC
:100E4000C33029F7B701C801CF911F910F91FF90CF
:100E5000EF90089581309105A1F0823091051CF446
:100E6000009741F031C082309105B1F08330910597
:100E700059F51DC084E06CE40E947F0680E068E6BE
:100E80001CC084E06CE40E947F0680E06AE70E9458
:100E90007F0680E06EE715C084E06CE40E947F0668
:100EA00080E06AE60E947F0680E06EE60AC084E089
:100EB0006CE40E947F0680E068E70E947F0680E085
:100EC0006CE60E947F06482F842F089561E070E051
:100ED00080E090E00E94450F83E061E00E941C10DA
:100EE00061E070E080E090E00E94450F83E060E008
:100EF0000E941C1008951F93CF93DF93EC01142FD1
:100F0000662321F080913D0161E003C080913D01A5
:100F100060E00E941C1080E160E00E941C108FE0E5
:100F200060E00E941C10C130D10521F086E060E035
:100F30000E941C1015B98FEF84B90E94660715B87E
:100F400014B880913D0160E00E941C10DF91CF91A8
:100F50001F910895DF92EF92FF920F931F93CF930B
:100F6000DF93EC0115B814B8DD24EE24FF248701CB
:100F7000CE0161E048E00E947B07CE0160E04D2D8C
:100F80000E947B078FE060E00E941C1082E060E01E
:100F90000E941C1061E070E080E090E00E94450F2C
:100FA000102F0F2DFE2CEE2483B1E80EF11C011D35
:100FB000111D82E061E00E941C10D3948D2D8330BE
:100FC000B9F6B701C801DF91CF911F910F91FF9042
:100FD000EF90DF9008958230910519F40E94FE068B
:100FE00008950E94AA070895CF93DF93EB0161E073
:100FF00044E00E947B0715B814B8C130D10581F0D8
:10100000C230D1051CF4209741F01CC0C230D1057C
:1010100051F0C330D105B1F40DC086E060E005C0E9
:1010200086E061E009C086E061E00E941C108FE06C
:1010300060E006C086E060E00E941C108FE061E086
:101040000E941C1082E060E00E941C1061E070E0D1
:1010500080E090E00E94450FC3B182E061E00E9411
:101060001C108C2FDF91CF9108958230910521F4CF
:10107000CB010E942A0708950E94F407089561E0B9
:1010800040E80E947B0784E060E00E941C1061E061
:1010900070E080E090E00E94450F84E061E00E94F3
:1010A0001C108EE00E9454100097D9F308958230EE
:1010B000910519F40E946D0608950E943F08089555
:1010C000FF920F931F93CF93DF938C01F62EEA01CB
:1010D0004330510519F461E040E202C061E040E4B0
:1010E0000E947B0780913D0160E00E941C1080E11E
:1010F00061E00E941C108FE060E00E941C10013033
:10110000110521F086E060E00E941C1061E070E0B3
:1011100080E090E00E94450FF5B88FEF84B90E94FF
:10112000660715B814B8C130D10531F0C230D10509
:1011300069F0209721F012C08FE061E002C08FE0DB
:1011400060E00E941C1086E060E006C08FE060E076
:101150000E941C1086E061E00E941C1061E070E0BB
:1011600080E090E00E94450F84E060E00E941C1047
:1011700061E070E080E090E00E94450F84E061E073
:101180000E941C108EE00E9454100097D9F38FE04B
:1011900060E00E941C1086E060E00E941C10DF915D
:1011A000CF911F910F91FF9008958230910529F4FE
:1011B000862FBA010E94230608950E9460080895B0
:1011C000982F90539A3028F4282F30E02053304045
:1011D0000BC0982F9154963028F4282F30E02753D5
:1011E000304002C020E030E0C9010895FF920F9323
:1011F0001F93DF93CF9300D00F92CDB7DEB7FF24BC
:101200008E010F5F1F4F89EE91E00E947E100097C4
:10121000D1F389EE91E00E94AD10282F8F2D8130FF
:1012200069F4283011F02F3749F489EE91E060E03D
:1012300071E02B830E94EA12FF242B81822F8156BA
:10124000863038F4822F992787FD90950E94EF13FE
:10125000282F822F80538A3018F08151863050F425
:10126000F801EF0DF11D2083F39489EE91E0622FD8
:101270000E94ED128F2D823030F289EE91E00E94B3
:10128000F5128A810E94E0088C0189810E94E008A1
:101290009C01A4E0220F331FAA95E1F7200F311F14
:1012A000C9010F900F900F90CF91DF911F910F9177
:1012B000FF900895CF93DF93D82FC62F803128F465
:1012C00089EE91E060E30E94ED1289EE91E06D2FCE
:1012D00040E150E00E94BF13CC2329F089EE91E059
:1012E00060E20E94ED12DF91CF9108951F93CF939A
:1012F000DF93182FC9EED1E0CE0169ED74E00E94B2
:10130000C712812F61E00E945A09CE010E94F51296
:10131000DF91CF911F9108950F931F93CF93DF9388
:10132000FC01C62FD42F122F89EE91E0BF010E943D
:10133000EA12C23049F0C33061F0C13081F489EE65
:1013400091E06BE075E009C089EE91E06DEF74E02B
:1013500004C089EE91E06FEE74E00E94C7128D2FF9
:1013600061E00E945A09C23050F0812F61E00E9472
:101370005A09C23021F0802F61E00E945A0989EE9B
:1013800091E00E94F512DF91CF911F910F91089586
:10139000009721F08130910559F405C080E161E0AA
:1013A0000E941C10089580913D0161E00E941C1074
:1013B0000895009721F08130910559F405C080E12E
:1013C00060E00E941C10089580913D0160E00E9441
:1013D0001C100895CF9315B814B882E162E00E9402
:1013E000DE0F85E061E00E94DE0F8EE060E00E948B
:1013F000DE0F82E061E00E94DE0F84E061E00E9487
:10140000DE0F8FE061E00E94DE0F80E161E00E946C
:10141000DE0F80913D0161E00E94DE0F80913C0172
:1014200061E00E94DE0F87E061E00E94DE0F86E04F
:1014300061E00E94DE0F83E061E00E94DE0F80E049
:101440000E945410009711F410923E0187E060E072
:101450000E941C1085E061E00E941C1089EE91E062
:1014600040E05BE460E070E00E94A41189EE91E04E
:101470000E94F51289EE91E00E94F51289EE91E04A
:1014800066E378E00E94C71289EE91E064E071E0C3
:101490000E94EA1280913E01882329F089EE91E0B2
:1014A00067E278E004C089EE91E064E178E00E94B0
:1014B0000A1389EE91E00E94F5121092520127C0A2
:1014C00090E00E9404058091520190E00E94EB0799
:1014D0006093540170935501809356019093570186
:1014E0000E947A058091540190915501A091560176
:1014F000B0915701CD01AA27BB278E319105A105D7
:10150000B10549F0809152018F5F80935201809123
:1015100052018330A8F280915201833008F48DC0CB
:1015200089EE91E065E078E00E940A1389EE91E08F
:1015300067ED77E00E940A1380913E01882399F4B9
:1015400080E090E00E94C80968EB7BE080E090E0DA
:101550000E94450F80E090E00E94D909FFCF89EEFC
:1015600091E00E94AD1089EE91E00E947E100097FC
:10157000B1F789EE91E00E94F51289EE91E06AECF4
:1015800077E00E940A1389EE91E06FEB77E00E940A
:101590000A1389EE91E06BEA77E00E940A1389EE64
:1015A00091E060EA77E00E940A1389EE91E065E934
:1015B00077E00E940A1389EE91E06CE877E00E94E0
:1015C000C71289EE91E00E947E100097D1F389EE58
:1015D00091E00E94AD100E94EF13C82F89EE91E0B8
:1015E0006C2F0E94301304C089EE91E00E94AD1070
:1015F00089EE91E00E947E100097B1F7C03509F4A2
:101600000EC1C435B9F0C33509F40CC1C835A1F019
:1016100089EE91E069E071E00E94EA1289EE91E0C2
:101620006C2F0E94ED1289EE91E065E777E00E9451
:101630000A139FCF81E0F7C0FFCF89EE91E069E602
:1016400077E00E94C712409154015091550160917A
:1016500056017091570189EE91E020E130E00E943F
:10166000AC13609154017091550180915601909195
:1016700057010E947D049093400180933F0189EEC1
:1016800091E06DE577E00E94C71280913F01909153
:10169000400197FD2FC0FC01C3E0EE0FFF1FCA956C
:1016A000E1F7E551FD4F25913491432F50E041156D
:1016B000510501F50E94AB0489EE91E069E577E000
:1016C0000E94C71280913E01882371F481E090E06E
:1016D0000E94C8096CED75E080E090E00E94450F23
:1016E00081E090E00E94D9098FEF9FEF9093400135
:1016F00080933F0180913F019091400197FF62C02C
:1017000089EE91E061E577E00E940A1380913E0145
:10171000882379F480E090E00E94C80968EB7BE0C0
:1017200080E090E00E94450F80E090E00E94D9099F
:10173000FFCF80E090E00E94C8096CED75E080E08A
:1017400090E00E94450F80E090E00E94D90910923D
:10175000530104C089EE91E00E94AD1089EE91E042
:101760000E947E100097B1F727C089EE91E069E3EF
:1017700077E00E94C71289EE91E00E947E100097E8
:10178000D1F389EE91E00E94AD10682F8093530150
:1017900089EE91E00E94301304C089EE91E00E942E
:1017A000AD1089EE91E00E947E100097B1F7809114
:1017B00053018053809353018091530181508330B2
:1017C000A0F634C00E94AB0489EE91E00E94F512AD
:1017D000E0913F01F0914001B3E0EE0FFF1FBA9599
:1017E000E1F7E551FD4F859194919093530181E08C
:1017F00090E00E94C80980913E01882329F06CED99
:1018000075E080E090E004C068EB7BE080E090E071
:101810000E94450F81E090E00E94D90907C0109214
:1018200052010BCF82E08093520107CFCF910895F0
:10183000EF92FF920F931F93CF93DF937C01EB0105
:10184000CC0FDD1FCC0FDD1FC60FD71F00E010E04F
:1018500014C0C7010E94C80964E670E080E090E00F
:101860000E94450FC7010E94D90964E670E080E03C
:1018700090E00E94450F0F5F1F4F0C171D074CF3A0
:10188000DF91CF911F910F91FF90EF9008958F926C
:101890009F92AF92CF92EF920F931F93CF93DF93CC
:1018A00080913F019091400197FD10C043E0880F67
:1018B000991F4A95E1F7FC01E551FD4FC591D4917F
:1018C00083519D4FFC0185909490C92C80915201C9
:1018D00090E00E9404058091520190E060E070E089
:1018E0000E943508182F80915301823040F080917A
:1018F000520190E061E070E00E943508E82E80918E
:101900005301833040F08091520190E062E070E03A
:101910000E943508A82E8091520190E063E070E0AB
:101920000E943508D82F0E947A058BE091E06091E3
:101930005301412F2E2D0A2D0E948C0920913F0129
:101940003091400137FD09C084E191E0609153017D
:101950004C2F2C2D082D0E948C098D2F0E9476096A
:1019600080913E01882309F461C189EE91E00E94D3
:10197000F51289EE91E061E377E00E940A1389EEA7
:1019800091E060E277E00E940A1380913F0190911C
:10199000400197FD06C089EE91E061E077E00E948A
:1019A0000A1389EE91E06BEE76E00E940A138091B3
:1019B0005301823030F089EE91E064ED76E00E94D0
:1019C0000A1380915301833030F089EE91E069EB86
:1019D00076E00E940A1389EE91E062EA76E00E94C6
:1019E0000A1389EE91E069E976E00E94C71289EE58
:1019F00091E00E947E100097D1F389EE91E00E9461
:101A0000AD100E94EF13D82F89EE91E06D2F0E9448
:101A100030138D2F84548230D0F0DC34C1F0D834B0
:101A2000B1F0D835A1F0DB3491F089EE91E069E0B6
:101A300071E00E94EA1289EE91E06D2F0E94ED1292
:101A400089EE91E06DE171E00E941D138ECF8091CF
:101A5000520190E00E940405D83409F479C0D934C9
:101A600034F4D43441F1D53409F0D0C00AC0DC34A8
:101A700009F452C0D83509F48CC0DB3409F0C6C073
:101A8000A8C082E10E945410009781F489EE91E091
:101A90006CE876E00E940A138091520190E00E9467
:101AA000570889EE91E064E876E0AEC089EE91E0F7
:101AB00068E676E0A9C080913F019091400197FDD2
:101AC000A5C089EE91E06BE576E00E940A13809153
:101AD000520190E06C2F40E050E00E94D5088091C8
:101AE0005301823040F08091520190E06C2D41E032
:101AF00050E00E94D50880915301833040F08091DE
:101B0000520190E0682D42E050E00E94D50889EE35
:101B100091E063E576E078C089EE91E064E476E0F8
:101B20000E94C7120E94F608C82F89EE91E067E371
:101B300076E00E940A138091520190E06C2F40E001
:101B400050E00E94D50889EE91E06FE276E05CC03B
:101B500080915301823008F459C089EE91E06FE121
:101B600076E00E94C7120E94F608C82F89EE91E025
:101B700062E176E00E940A138091520190E06C2F9E
:101B800041E050E00E94D50889EE91E06AE076E0FD
:101B90003BC0809153018330C8F189EE91E066EF3C
:101BA00075E00E94C7120E94F608C82F89EE91E0E6
:101BB00069EE75E00E940A138091520190E06C2F4B
:101BC00042E050E00E94D50889EE91E061EE75E0B8
:101BD0001BC089EE91E061ED75E00E94C7120E9482
:101BE000F608C82F89EE91E064EC75E00E940A13B4
:101BF0008091520190E06C2F43E050E00E94D508A4
:101C000089EE91E06CEB75E00E940A1389EE91E099
:101C10000E94F5120E947A05DF91CF911F910F91DA
:101C2000EF90CF90AF909F908F90089589EE91E0C4
:101C300067EA75E00E940A138091520190E00E94C9
:101C4000040589EE91E06AE875E00E940A1380912C
:101C5000520190E06FEF43E050E00E94D508809180
:101C6000520190E063E070E00E9435088F3F81F000
:101C700082E10E945410009759F489EE91E06BE7DD
:101C800075E00E940A138091520190E00E9457086B
:101C900089EE91E06CE575E00E940A138091520193
:101CA00090E06C2F40E050E00E94D50880915301F5
:101CB000823040F08091520190E06C2D41E050E084
:101CC0000E94D50880915301833040F080915201E9
:101CD00090E0682D42E050E00E94D50864E670E094
:101CE00080E090E00E94450F8091520190E063E017
:101CF00070E00E943508182F8091520190E060E05A
:101D000070E00E943508D82F80915301823040F056
:101D10008091520190E061E070E00E943508E82E69
:101D200080915301833040F08091520190E062E055
:101D300070E00E943508A82E0E947A0589EE91E095
:101D400064E475E00E940A138091530190E0612FD2
:101D50004FEF2D2F0C2F0E94DB04882349F089EED2
:101D600091E066E375E00E940A1381E090E008C00C
:101D700089EE91E066E275E00E940A1380E090E04F
:101D800065E070E00E94180C89EE91E069E175E071
:101D90000E940A13FFCF1F920F920FB60F921124C9
:101DA0002F933F934F935F936F937F938F939F9363
:101DB000AF93BF9320915C0130915D0140915E0132
:101DC00050915F0170916001DA01C9010296A11D75
:101DD000B11D672F6A5F6D3730F06D57DA01C901A9
:101DE0000396A11DB11D6093600180935C019093E7
:101DF0005D01A0935E01B0935F01809158019091C5
:101E00005901A0915A01B0915B010196A11DB11D2C
:101E10008093580190935901A0935A01B0935B01AC
:101E2000BF91AF919F918F917F916F915F914F91F2
:101E30003F912F910F900FBE0F901F9018959FB755
:101E4000F894209158013091590140915A015091D4
:101E50005B0186B5A89B06C08F3F21F02F5F3F4FE7
:101E60004F4F5F4F9FBF542F432F322F2227280FF2
:101E7000311D411D511D83E0220F331F441F551F8B
:101E80008A95D1F7B901CA010895EF92FF920F9395
:101E90001F93CF93DF937B018C010E941F0FEB01F7
:101EA0000FC00E941F0F6C1B7D0B83E0683E7807FC
:101EB00038F00894E108F10801091109C851DC4F14
:101EC000E114F1040105110561F7DF91CF911F9134
:101ED0000F91FF90EF900895019739F0019729F045
:101EE000880F991F01970197F1F70895789484B5A9
:101EF000826084BD84B5816084BD85B5826085BD06
:101F000085B5816085BDEEE6F0E0808181608083EB
:101F1000E1E8F0E0108280818260808380818160CE
:101F20008083E0E8F0E0808181608083E1EBF0E095
:101F3000808184608083E0EBF0E080818160808339
:101F4000EAE7F0E080818460808380818260808322
:101F50008081816080838081806880831092C1004D
:101F60000895833071F0843028F48130A1F08230FC
:101F700021F514C08630B1F08730D1F08430E9F417
:101F800004C0809180008F7703C0809180008F7D96
:101F900080938000089584B58F7702C084B58F7DCB
:101FA00084BD08958091B0008F778093B00008952C
:101FB0008091B0008F7D8093B0000895CF93DF9320
:101FC00090E0FC01E558F74F44918959974FFC0187
:101FD0008491882371F190E0880F991FFC01E75BE1
:101FE000F74F25913491D9018D5A974FFC012591D6
:101FF0003491C22FD32F662349F49FB7F8948C9164
:10200000409584238C93888184230BC0623059F4DB
:102010009FB7F8948C91242F209582238C938881EC
:10202000842B888305C09FB7F8948C91842B8C9364
:102030009FBFDF91CF9108950F931F93DF93CF93AD
:102040000F92CDB7DEB7282F30E0F901E157F74FF7
:102050008491F901E558F74F14912959374FF90147
:1020600004910023D9F0882321F069830E94B10FE5
:102070006981E02FF0E0EE0FFF1FED5AF74F8591D9
:102080009491DC019FB7F894662321F48C9110950C
:10209000812302C08C91812B8C939FBF0F90CF9195
:1020A000DF911F910F910895CF93DF93282F30E098
:1020B000F901E157F74F8491F901E558F74FD491B1
:1020C0002959374FF901C491CC2391F0882311F09D
:1020D0000E94B10FEC2FF0E0EE0FFF1FE35AF74F15
:1020E00085919491DC018C918D2321E030E011F4F5
:1020F00020E030E0C901DF91CF910895FC01848593
:102100009585FC01E05CFF4F208131818E5B9F4F04
:10211000FC0180819181281B390B2F733070C9011C
:102120000895FC0184859585FC01E05CFF4F4081AA
:102130005181FC01EE5BFF4F208131814217530733
:1021400041F00190F081E02DE80FF91F208130E08F
:1021500002C02FEF3FEFC9010895FC0184859585EA
:10216000FC01E05CFF4F40815181FC01EE5BFF4FC1
:10217000208131814217530771F0A081B181A80FEE
:10218000B91F2C918081918101968F7390709183FA
:10219000808330E002C02FEF3FEFC9010895FC01BA
:1021A00081A1882329F0A489B5898C9186FFFBCF72
:1021B00011A20895FC0126853785D901A05CBF4F87
:1021C0008D919C9101968F739070D901AE5BBF4F3A
:1021D0004D915C91119784179507D1F3D901A05CBB
:1021E000BF4F0D90BC91A02DA20FB31F6C93A6857D
:1021F000B785A05CBF4F11969C938E93A689B78933
:102200002C9181E090E0078C02C0880F991F0A94FE
:10221000E2F7282B2C9381E081A30488F589E02D37
:1022200080818064808381E090E00895FB01E05C20
:10223000FF4F208131812F5F3F4F2F733070DB01C3
:10224000AE5BBF4F4D915C9111972417350739F064
:10225000A081B181A60FB71F8C933183208308958D
:1022600008951F920F920FB60F9211242F933F9350
:102270004F935F936F937F938F939F93AF93BF938E
:10228000EF93FF938091C00082FD07C08091C6004C
:1022900061E671E00E94161102C08091C600FF91B4
:1022A000EF91BF91AF919F918F917F916F915F91CE
:1022B0004F913F912F910F900FBE0F901F90189547
:1022C00089EE91E00E947E10009711F00E9430117B
:1022D00008951F920F920FB60F9211242F933F93E0
:1022E0008F939F93EF93FF932091E5013091E60147
:1022F0008091E7019091E8012817390731F4809126
:10230000C1008F7D8093C10014C0E091E701F0917E
:10231000E801EB55FE4F20818091E7019091E801A3
:1023200001968F7390709093E8018093E70120935A
:10233000C600FF91EF919F918F913F912F910F9048
:102340000FBE0F901F9018959F92AF92BF92CF92A1
:10235000DF92EF92FF920F931F93CF93DF93EC01E5
:102360007A018B0199249394EC89FD8981E090E0B6
:1023700008A002C0880F991F0A94E2F7808360E8E2
:1023800074E88EE190E0A80197010E94C7132150E4
:10239000304040405040569547953795279590E4FA
:1023A000A92E92E4B92E9FE0C92ED12C12C09924F7
:1023B000EC89FD891082C601B501A80197010E9430
:1023C000C7132150304040405040569547953795AF
:1023D000279580E12030380710F0992041F7E889EF
:1023E000F9893083EA89FB89208319A2EE89FF8964
:1023F000408181E090E09C010C8C02C0220F331FD1
:102400000A94E2F7422B4083EE89FF8940819C01C8
:102410000D8C02C0220F331F0A94E2F7422B408337
:10242000EE89FF8940819C010E8C02C0220F331F70
:102430000A94E2F7422B4083EE89FF8920810F8CBA
:1024400002C0880F991F0A94E2F780958223808347
:10245000DF91CF911F910F91FF90EF90DF90CF9080
:10246000BF90AF909F9008951092EC011092EB01F5
:1024700088EE93E0A0E0B0E08093ED019093EE0150
:10248000A093EF01B093F001EBEEF1E085E491E071
:102490009293829381E691E09587848785EA91E023
:1024A0009787868785EC90E0918B808B84EC90E019
:1024B000938B828B80EC90E0958B848B81EC90E009
:1024C000978B868B82EC90E0918F808F86EC90E0EA
:1024D000938F828F84E0848F83E0858F87E0868F5F
:1024E00085E0878F81E080A30895CF93DF930E94DA
:1024F000760F0E94EA09C0E6D1E10E94470C2097BE
:10250000E1F30E946011F9CFCF92DF92EF92FF9238
:102510000F931F93CF93DF936C017B018A01C0E07F
:10252000D0E00FC0D7016D917D01D601ED91FC91F6
:102530000190F081E02DC6010995C80FD91F015007
:1025400010400115110571F7CE01DF91CF911F9158
:102550000F91FF90EF90DF90CF9008956115710576
:1025600091F0DB010D900020E9F7AD0141505040A2
:10257000461B570BDC01ED91FC910280F381E02DAD
:1025800009959C0102C020E030E0C9010895EF9256
:10259000FF920F931F93CF93DF937C01062F172F8A
:1025A000C0E0D0E0F8010F5F1F4F6491662351F047
:1025B000F701A081B181ED91FC91C7010995C80F88
:1025C000D91FF0CFCE01DF91CF911F910F91FF90D6
:1025D000EF9008950E94AE120895DC01ED91FC91F8
:1025E0000190F081E02D099508950F931F93CF93EB
:1025F000DF93EC016DE00E94ED128C01CE016AE0E8
:102600000E94ED12080F191FC801DF91CF911F9191
:102610000F9108950F931F93CF93DF93EC010E94C6
:10262000C7128C01CE010E94F512080F191FC801B4
:10263000DF91CF911F910F9108950F931F93CF9327
:10264000DF93EC010E94AE128C01CE010E94F512C4
:10265000080F191FC801DF91CF911F910F910895A5
:102660000F931F93CF93DF93EC010E94ED128C0127
:10267000CE010E94F512080F191FC801DF91CF91FA
:102680001F910F9108958F929F92AF92BF92CF9218
:10269000DF92EF92FF920F931F93DF93CF93CDB70B
:1026A000DEB7A1970FB6F894DEBF0FBECDBF6C01A9
:1026B000042FE52FCB01122F19A2223008F41AE0C3
:1026C00021E2E22EF12CEC0EFD1E812E9924AA248B
:1026D000BB2403C0022FE32FCA01602F7E2FA50168
:1026E00094010E94C713129F802D1124081B089487
:1026F000E108F1080A3014F4005D01C0095CF7013B
:102700000083211531054105510521F7C601B701A7
:102710000E94AE12A1960FB6F894DEBF0FBECDBFD9
:10272000CF91DF911F910F91FF90EF90DF90CF90AD
:10273000BF90AF909F908F9008952115310549F477
:10274000DC01ED91FC910190F081E02D642F099561
:1027500008950E94431308950F931F93CF93DF931F
:10276000EC010E949D138C01CE010E94F512080F0E
:10277000191FC801DF91CF911F910F9108959A0100
:10278000462F50E060E070E00E949D130895A1E2A2
:102790001A2EAA1BBB1BFD010DC0AA1FBB1FEE1FDB
:1027A000FF1FA217B307E407F50720F0A21BB30B26
:1027B000E40BF50B661F771F881F991F1A9469F7A2
:1027C00060957095809590959B01AC01BD01CF01FE
:1027D0000895EE0FFF1F0590F491E02D09949111DB
:1027E000089581568A5108F4805285580895FB0156
:1027F000DC0105900D920020E1F70895F894FFCFD9
:1028000008200800302E39340027004375727265A5
:102810006E74200044656661756C74200027206921
:1028200073206E6F7420612076616C696420636F21
:102830006D6D616E6420636861722E00131101FF7B
:10284000FF00000000DA1084127E10AD109110CF4E
:02285000100076
:00000001FF
