:100000000C94AB040C94D3040C94D3040C94D3043C
:100010000C94D3040C94D3040C94D3040C94D30404
:100020000C94D3040C94D3040C94D3040C94D304F4
:100030000C94D3040C94D3040C94D3040C94D304E4
:100040000C94B40F0C94D3040C940E120C9446121E
:100050000C94D3040C94D3040C94D3040C94D304C4
:100060000C94D3040C94D3044154393053323331BB
:100070003300415439305332333333004154393033
:100080005332333433004154393053343433330032
:1000900041543930533434333400415439305338B7
:1000A00035313500415439305338353335004154FA
:1000B00074696E79313100415474696E793132005E
:1000C000415474696E79313300415474696E7931E9
:1000D0003500415474696E793233313300415474C0
:1000E000696E793433313300415474696E79323436
:1000F00000415474696E79343400415474696E79E6
:10010000383400415474696E793235004154746951
:100110006E79343500415474696E79383500415434
:1001200074696E79323600415474696E79323631B1
:1001300000415474696E7934363100415474696EEB
:100140007938363100415474696E7932380041543F
:1001500074696E79343800415474696E79383800A6
:1001600041546D656761383531350041546D6567BF
:1001700061383533350041546D656761380041544D
:100180006D656761384856410041546D656761315E
:10019000360041546D65676131364856410041541F
:1001A0006D65676131364856420041546D6567613F
:1001B00033320041546D656761333243310041543D
:1001C0006D65676133324856420041546D65676121
:1001D00036340041546D65676136346331004154F3
:1001E0006D6567613634484556320041546D656728
:1001F0006136346D310041546D65676131323800CC
:1002000041546D6567613132385246413100415485
:100210006D6567613136320041546D656761343810
:100220000041546D6567613438500041546D656715
:100230006138380041546D65676138385000415469
:100240006D6567613136380041546D6567613136DF
:1002500038500041546D6567613332380041546D48
:10026000656761313634410041546D6567613136EF
:1002700034500041546D656761333234410041545C
:100280006D656761333234500041546D6567613389
:10029000323450410041546D656761363434004159
:1002A000546D656761363434500041546D65676143
:1002B000363434524652320041546D6567613132F2
:1002C00038340041546D6567613132383450004133
:1002D000546D6567613132383452465232004154B0
:1002E0006D65676133323850000191FF010000688D
:1002F000000591FF01000072000391FF0100007CE6
:10030000000392FF01000086000292FF01000090AE
:10031000000193FF0100009A000393FF010000A475
:10032000000490FF010000AE000590FF010000B73F
:100330000007906A0200FFC0000690FF010000C99C
:10034000000A916403FFDFD2000D926403FFDFDD3A
:10035000000B916203FFDFE80007926203FFDFF109
:10036000000C936203FFDFFA0008916203FFDF03D2
:100370000106926203FFDF0C010B936203FFDF159E
:10038000010991410200F71E010C916203FFDF2772
:100390000108926203FFDF31010D936203FFDF3B2F
:1003A000010791FF010000450109926E03FFDF4E36
:1003B0000111936E03FFDF57010693C10200D9605C
:1003C000010893C10200D96B010793E10200D976BD
:1003D000011093DF0100007E010394E1020099897E
:1003E000010C94DF01000092010D94DE0200E99EF1
:1003F000010295E1020099AA0186954103F9D9B35A
:10040000011095DE0200E9BE010296C103FF99CA00
:100410000186964103F9D9D3011096D60200F9DE80
:100420000184964103F9D9EB010297C103FD99F6C6
:10043000010197C103FD99000204946203FF990E24
:100440000205926203FFDF18020A926203FFDF21B6
:10045000020A936203FFDF2B020F936203F9DF347A
:100460000206946203F9DF3E020B946203FFDF4849
:100470000214956203FFD953020F944203FF995D62
:10048000020A944203FF99680215954203FF99738B
:100490000208954203FF997E0211954203FF998954
:1004A0000209966203FF9995020A966203FF999FDB
:1004B00002029600000000AA0206974203FF99B8C4
:1004C0000205974203FF99C302039700000000CF83
:1004D000020F956203FFD9DE0243757272656E7476
:1004E000206C6F636B20627974653A202020004C89
:1004F0002F482F452D46757365733A20004C2F48C1
:100500002D46757365733A2020200046757365206B
:10051000627974653A20202000496E76616C6964C6
:100520002068657861646563696D616C20636861EA
:10053000726163746572000A496E76616C69642049
:10054000656E642D6F662D6C696E652063686172DF
:1005500061637465720054696D656F7574206475AC
:1005600072696E67207772697465206F7065726159
:1005700074696F6E00646F6E653A204641494C4560
:100580004420696E200700646F6E653A20537563DE
:100590006365737366756C20696E200056657269B9
:1005A0006679696E67202E2E2E200020646F6E659E
:1005B00000202E2E2E20000A53657474696E672069
:1005C00000203A20004E6577200054727920616740
:1005D00061696E2077697468202765726173652090
:1005E0006368697027206A756D7065722073657421
:1005F000002D3E20526573757272656374696F6E6B
:10060000204641494C454421002D3E2052657375DA
:100610007272656374696F6E20776173207375639E
:100620006365737366756C2100566572696679201F
:10063000667573652073657474696E67732E2E2EEC
:100640000053657420667573657320746F2064654C
:100650006661756C742076616C756573202E2E2E24
:10066000004C6F636B206279746520636F756C64F6
:10067000206E6F74206265206368616E6765642E0A
:100680002045726173652063686970202E2E2E00EC
:100690005265736574206C6F636B2062797465209A
:1006A0002D20696620706F737369626C652E2E2E23
:1006B0000053746172742048562070726F677261C3
:1006C0006D6D696E67206D6F64652E2E2E00427908
:1006D000652C20627965202E2E2E00646F6E653A9F
:1006E000204641494C454420544F20534554204610
:1006F000555345530700646F6E653A205375636523
:10070000737366756C6C792073657420616C6C20F2
:10071000667573657320746F2064656661756C74AB
:100720002076616C75657300566572696679696ECD
:1007300067202E2E2E2000646F6E65000A536574AC
:1007400074696E67206675736573202E2E2E2000E7
:10075000274572617365206368697027206973207B
:100760006E6F7420616C6C6F776564000A4572610E
:1007700073696E672063686970202E2E2E004163B6
:1007800074696F6E3A200020204B202D2043686151
:100790006E6765206C6F636B206279746500202042
:1007A00058202D204368616E676520657874656EFA
:1007B000646564206675736500202048202D204301
:1007C00068616E6765206869676820667573650093
:1007D00020204C202D204368616E6765206C6F7768
:1007E000206675736500202044202D204275726EAE
:1007F0002064656661756C7420667573652076612A
:100800006C75657300202045202D2045726173654D
:10081000206368697000202052202D2054727920B6
:10082000746F207265737572726563742063686992
:100830007020627920616C6C206D65616E7300437D
:10084000686F6F73653A0023206F66206675736565
:100850002062797465732028312D33293A200055A0
:100860006E6B6E6F776E00202F20004D4355206E0B
:10087000616D653A2020005369676E617475726519
:100880003A2000436865636B20776972696E672060
:10089000616E642074727920616761696E2E004E0A
:1008A0006F206368697020666F756E6421007275D1
:1008B0006E6E696E67206F6E2041726475696E6F2F
:1008C00000202F206E6F6E2D696E746572616374E7
:1008D0006976652C2000202F20696E746572616333
:1008E000746976652C2000526573637565415652B4
:1008F0002056657273696F6E2000000000002400AE
:1009000027002A0000000000250028002B0000001E
:100910000000230026002900040404040404040445
:10092000020202020202030303030303010204089A
:100930001020408001020408102001020408102049
:100940000000000700020100000304060000000090
:1009500000000000001311241FBECFEFD8E0DEBF5F
:10096000CDBF11E0A0E0B1E0E8E9F9E202C00590F6
:100970000D92AA3AB107D9F712E0AAEAB1E001C094
:100980001D92A336B107E1F719E0C6E5D9E004C02E
:100990002297FE010E94B714C435D107C9F70E94FF
:1009A00041130C94CA140C940000EF92FF920F9321
:1009B0001F939C01442755272E31310541055105D0
:1009C000D1F420E030E080709070F90143E0EE0F48
:1009D000FF1F4A95E1F7E751FD4FE590F49000E0E5
:1009E00010E06E157F058007910739F02F5F3F4FAC
:1009F0002E33310551F72FEF3FEFC9011F910F91B2
:100A0000FF90EF9008950F931F93DF93CF93CDB78F
:100A1000DEB72F970FB6F894DEBF0FBECDBF8E3373
:100A20009105B0F4FC0163E0EE0FFF1F6A95E1F75A
:100A3000E151FD4F259134918E010F5F1F4FC80189
:100A4000B9010E94C31481E492E0B8010E94B61378
:100A50002F960FB6F894DEBF0FBECDBFCF91DF91BA
:100A60001F910F9108958F92AF92CF92EF920F93B3
:100A7000DF93CF93CDB7DEB7FC01641711F491E09B
:100A8000201390E0892FE230F10574F0992311F0E2
:100A900091E0EC1090E0892FE230F10529F09923E4
:100AA00011F081E0A81080E0CF91DF910F91EF90DD
:100AB000CF90AF908F9008951F93CF93DF93182F0F
:100AC000C8EED3E0812F0E9431118130910571F081
:100AD00061E070E080E090E00E942210219791F7A1
:100AE00081E492E066E575E00E94D613DF91CF9134
:100AF0001F91089561E070E080E090E00E94221074
:100B000083E161E00E94F91061E070E080E090E034
:100B10000E94221083E160E00E94F9100895EF9294
:100B2000FF920F931F93CF93DF93082FE62E83E15D
:100B300060E00E94F9108EE060E00E94F9108FE002
:100B400060E00E94F9100E947A05C0E0D0E010E059
:100B5000FF24C8010C2E02C0880F991F0A94E2F7E7
:100B600087FF03C08EE061E002C08EE060E00E947B
:100B7000F910C7010C2E02C0880F991F0A94E2F7E2
:100B800087FF03C08FE061E002C08FE060E00E9459
:100B9000F9100E947A052196C830D105D1F68EE071
:100BA00060E00E94F9108FE060E00E94F9100E945E
:100BB0007A058EE060E00E94F9108FE060E00E940C
:100BC000F9100E947A05DF91CF911F910F91FF904C
:100BD000EF900895CF93C82F6130710581F0623096
:100BE000710524F46115710541F037C0623071055B
:100BF000A9F06330710589F520C080E41FC080E44E
:100C00006CE40E948F058C2F6CE20E948F0580E0BF
:100C100064E70E948F0580E06CE71DC080E46CE40F
:100C20000E948F058C2F6CE20E948F0580E066E6A3
:100C30000E948F0580E06EE60EC080E26CE40E94A8
:100C40008F058C2F6CE20E948F0580E064E60E9485
:100C50008F0580E06CE60E948F0580E10E945C05B4
:100C6000CF91089580E86CE40E948F0580E064E6EF
:100C70000E948F0580E06CE60E948F0580E10E9453
:100C80005C050895BF92CF92DF92EF92FF920F938F
:100C90001F93CF93DF93E82EC62E83E160E00E947E
:100CA000F9108EE060E00E94F9108FE060E00E9491
:100CB000F9100E947A0580E10E943111813091057E
:100CC00011F0BB2402C070E8B72EC0E0D0E0FF24D2
:100CD000DD2400E410E097010C2E02C0220F331F28
:100CE0000A94E2F727FF03C08EE061E002C08EE0C5
:100CF00060E00E94F91096010C2E02C0220F331FF3
:100D00000A94E2F727FF03C08FE061E002C08FE0A2
:100D100060E00E94F9100E947A05C730D10571F099
:100D200080E10E9431118130910541F498010C2E2F
:100D300002C0359527950A94E2F7B22A2196C83069
:100D4000D10549F68EE060E00E94F9108FE060E086
:100D50000E94F9100E947A058EE060E00E94F9106E
:100D60008FE060E00E94F9100E947A058B2DDF91E0
:100D7000CF911F910F91FF90EF90DF90CF90BF9098
:100D80000895EF92FF920F931F93CF93C0E0EE244C
:100D9000FF24870188E06CE40E9442068C2F6CE0FF
:100DA0000E94420680E068E60E944206102F0F2D46
:100DB000FE2CEE2480E06CE60E944206E80EF11C58
:100DC000011D111DCF5FC33029F7B701C801CF91B5
:100DD0001F910F91FF90EF90089581309105A1F040
:100DE000823091051CF4009741F031C082309105AA
:100DF000B1F08330910559F51DC084E06CE40E9488
:100E0000420680E068E61CC084E06CE40E94420672
:100E100080E06AE70E94420680E06EE715C084E049
:100E20006CE40E94420680E06AE60E94420680E08E
:100E30006EE60AC084E06CE40E94420680E068E747
:100E40000E94420680E06CE60E944206482F842FF2
:100E5000089561E070E080E090E00E9422108EE052
:100E600061E00E94F91061E070E080E090E00E9493
:100E700022108EE060E00E94F9100895CF93DF9376
:100E8000D82FC2E08C2F6D2F0E94BB10CF5FCA30CD
:100E9000C9F7DF91CF910895CF93DF93C2E080E04F
:100EA000D82FDD0F8C2F0E9431118D0FCF5FCA30EC
:100EB000B9F7DF91CF910895CF93DF93D82FC2E098
:100EC0006D2F661F6627661F8C2F0E94F910DD0F9D
:100ED000CF5FCA30A9F7DF91CF9108951F93CF93C9
:100EE000DF93EC01142F662321F08091940161E0DF
:100EF00003C08091940160E00E94F9108AE060E0F4
:100F00000E94F9108FE060E00E94F910C130D10515
:100F100021F083E160E00E94F910812F0E945C07BC
:100F200081E090E00E943E070E94290780E00E9435
:100F30005C0780E090E00E943E078091940160E0B1
:100F40000E94F910DF91CF911F91089561E040E870
:100F50000E946E0780E160E00E94F91061E070E09D
:100F600080E090E00E94221080E161E00E94F91090
:100F700082E10E945C0508958230910519F40E9477
:100F8000320608950E94A6070895DF92EF92FF921D
:100F90000F931F93CF93DF93EC0180E00E945C07D7
:100FA00080E090E00E943E07DD24EE24FF248701CC
:100FB000CE0161E048E00E946E07CE0160E04D2D59
:100FC0000E946E078FE060E00E94F91081E160E00E
:100FD0000E94F91061E070E080E090E00E94221031
:100FE000102F0F2DFE2CEE240E944C07E80EF11C52
:100FF000011D111D81E161E00E94F910D3948D2D36
:101000008330B1F6B701C801DF91CF911F910F91E5
:10101000FF90EF90DF9008958230910519F40E94BF
:10102000C10608950E94C5070895CF93DF93EB0191
:1010300061E044E00E946E0780E00E945C0780E06F
:1010400090E00E943E07C130D10581F0C230D10549
:101050001CF4209741F01CC0C230D10551F0C330C0
:10106000D105B1F40DC083E160E005C083E161E02A
:1010700009C083E161E00E94F9108FE060E006C0E2
:1010800083E160E00E94F9108FE061E00E94F910B6
:1010900081E160E00E94F91061E070E080E090E0A2
:1010A0000E9422100E944C07C82F81E161E00E943B
:1010B000F9108C2FDF91CF9108958230910521F4A2
:1010C000CB010E94ED0608950E9415080895FF9235
:1010D0000F931F93CF93DF938C01F62EEA0168E5FF
:1010E00072E080E090E00E94221081E492E06BEADE
:1010F00075E00E94D61368EC70E080E090E00E94FA
:10110000221081E492E06CE975E00E9493138091D3
:10111000AA0190E0B8010E945D08082F68E572E01E
:1011200080E090E00E9422100F1529F481E492E003
:1011300067E875E004C081E492E065E775E00E942D
:10114000931381E492E0BE010E94E913DF91CF91F5
:101150001F910F91FF900895FF920F931F93CF93CC
:10116000DF938C01F62EEA014330510519F461E05A
:1011700040E202C061E040E40E946E078091940169
:1011800060E00E94F9108AE061E00E94F9108FE0AF
:1011900060E00E94F9100130110521F083E160E068
:1011A0000E94F91061E070E080E090E00E9422105F
:1011B0008F2D0E945C0781E090E00E943E070E9414
:1011C000290780E00E945C0780E090E00E943E07D3
:1011D000C130D10531F0C230D10569F0209721F03E
:1011E00012C08FE061E002C08FE060E00E94F91061
:1011F00083E160E006C08FE060E00E94F91083E1C7
:1012000061E00E94F91061E070E080E090E00E94EF
:10121000221080E160E00E94F91061E070E080E05F
:1012200090E00E94221080E161E00E94F91082E1CA
:101230000E945C058FE060E00E94F91083E160E0AD
:101240000E94F910DF91CF911F910F91FF900895A7
:101250008230910529F4862FBA010E94EA0508958B
:101260000E94AC08089580E00E945C0780E090E056
:101270000E943E078FE0809393018BE0809394015E
:1012800081E161E00E94F9108DE060E00E94F910B8
:1012900061E070E080E090E00E94221081E160E077
:1012A0000E94F91080E160E00E94F91080919301A2
:1012B00060E00E94F9108091940160E00E94F910B2
:1012C0008AE060E00E94F9108FE060E00E94F9106F
:1012D00083E160E00E94F9108CE060E00E94F91068
:1012E0000895CF93DF93EC018130910529F48FE0CD
:1012F0008093930183E104C08FE0809393018BE09E
:101300008093940180E00E945C0780E090E00E945E
:101310003E078091930160E00E94F9108091940152
:1013200060E00E94F9108AE060E00E94F9108FE00E
:1013300060E00E94F91083E160E00E94F91080E112
:1013400060E00E94F91081E160E00E94F91064E61B
:1013500070E080E090E00E942210C230D10501F5DB
:1013600083E161E00E94BB108EE061E00E94BB104F
:101370008FE061E00E94BB1080E161E00E94BB1041
:101380008EE060E00E94F9108FE060E00E94F910AA
:1013900080E160E00E94F91083E160E00E94F910B2
:1013A0008CE061E00E94F91080E590E00E94491015
:1013B0008DE061E00E94F910C230D10541F481E076
:1013C00090E00E94491080E160E00E94BB108AE03A
:1013D00090E00E94491081E161E00E94F91080E1F3
:1013E00061E00E94F91061E070E080E090E00E940E
:1013F0002210DF91CF9108958F92AF92CF92EF920A
:101400000F93CF93DF93082FC62E842E81E492E0B2
:1014100061EB76E00E94D6138091AA0190E00E94D1
:10142000710960E971E080E090E00E94221081E49F
:1014300092E060E976E00E94D6138091AA0190E0E4
:101440006FEF43E050E00E94280968EC70E080E014
:1014500090E00E94221068EC70E080E090E00E9432
:1014600022108091AA0190E063E070E00E945D0884
:101470008F3FA9F080919801882389F081E492E060
:1014800061E676E00E94D6138091AA0190E00E9466
:10149000BC0760E971E080E090E00E94221081E4E6
:1014A00092E061E476E00E94D6138091AA0190E078
:1014B000602F40E050E00E9428098091AB0182300B
:1014C00040F08091AA0190E06C2D41E050E00E9434
:1014D00028098091AB01833040F08091AA0190E00F
:1014E000682D42E050E00E94280960E971E080E048
:1014F00090E00E9422108091AA0190E063E070E0E9
:101500000E945D08D82F8091AA0190E060E070E011
:101510000E945D08C82F8091AB01823040F080911D
:10152000AA0190E061E070E00E945D08E82E8091E1
:10153000AB01833040F08091AA0190E062E070E05E
:101540000E945D08A82E0E94330981E492E069E2BE
:1015500076E00E94D61364E670E080E090E00E949E
:10156000221064E670E080E090E00E94221064E6C1
:1015700070E080E090E00E94221064E670E080E07D
:1015800090E00E94221064E670E080E090E00E940B
:10159000221064E670E080E090E00E9422108091CA
:1015A000AB0190E06D2F4FEF2C2F0E943305882365
:1015B00029F081E492E069E076E00EC081E492E0F7
:1015C00061EF75E00E94D61380919801882331F471
:1015D00081E492E06AEC75E00E94D613DF91CF912E
:1015E0000F91EF90CF90AF908F90089580E00E9480
:1015F0005C0780E090E00E943E078CE061E00E9482
:10160000BB1082E160E00E94BB1081E161E00E94BA
:10161000BB1080E161E00E94BB108FE061E00E949E
:10162000BB108AE061E00E94BB108091940161E0F0
:101630000E94BB108091930161E00E94BB108DE07D
:1016400061E00E94BB1083E161E00E94BB108EE06C
:1016500061E00E94BB108DE060E00E94F9108CE018
:1016600060E00E94F91081E492E040E05BE460E019
:1016700070E00E94811281E492E00E94C11381E433
:1016800092E00E94C11381E492E067EE78E00E944C
:10169000931381E492E060E071E00E94B6138091C0
:1016A0009501882329F081E492E066ED78E004C09A
:1016B00081E492E061EC78E00E94931381E492E08F
:1016C0006EEA78E00E94D61381E492E00E94C11392
:1016D0001092AA0127C090E00E9471098091AA018E
:1016E00090E00E940C086093AC017093AD01809370
:1016F000AE019093AF010E9433098091AC019091AB
:10170000AD01A091AE01B091AF01CD01AA27BB27D9
:101710008E319105A105B10549F08091AA018F5F35
:101720008093AA018091AA018330A8F28091AA0136
:10173000833088F081E492E06FE978E00E94D6136C
:1017400081E492E063E878E00E94D61381E492E0BD
:101750000E94C113FFCF81E492E067E778E00E9426
:1017600093134091AC015091AD016091AE01709125
:10177000AF0181E492E020E130E00E9478146091B2
:10178000AC017091AD018091AE019091AF010E94CA
:10179000D504909397018093960181E492E06BE6E3
:1017A00078E00E949313809196019091970197FDA4
:1017B00027C0FC01B3E0EE0FFF1FBA95E1F7E5513A
:1017C000FD4F25913491432F50E041155105C1F44F
:1017D0000E94030581E492E067E678E00E9493139B
:1017E00080919501882331F468EE73E080E090E009
:1017F0000E9422108FEF9FEF9093970180939601A4
:10180000809196019091970197FF4CC081E492E0FE
:101810006FE578E00E94D61380919501882339F412
:1018200068EB7BE080E090E00E942210FFCF1092F6
:10183000AB0104C081E492E00E948A1181E492E04D
:101840000E945B110097B1F727C081E492E067E442
:1018500078E00E94931381E492E00E945B1100976C
:10186000D1F381E492E00E948A11682F8093AB014A
:1018700081E492E00E94FC1304C081E492E00E94A3
:101880008A1181E492E00E945B110097B1F7809188
:10189000AB0180538093AB018091AB0181508330C9
:1018A000A0F608950E94030581E492E00E94C1130E
:1018B000E0919601F0919701A3E0EE0FFF1FAA952A
:1018C000E1F7E551FD4F859194919093AB018091A3
:1018D0009501882331F468EB7BE080E090E00E9482
:1018E00022100895982F90539A3028F4282F30E032
:1018F000205330400BC0982F9154963028F4282F55
:1019000030E02753304002C020E030E0C9010895A4
:10191000FF920F931F93DF93CF9300D0CDB7DEB725
:10192000FF248E010F5F1F4F81E492E00E945B1144
:101930000097D1F381E492E00E948A11682F8830E9
:1019400011F08F3751F4FF2079F381E492E064E0E5
:1019500071E00E94B613FA9433C08F2D823059F48F
:10196000603291F16D3081F16A3071F181E492E081
:1019700067E375E020C0862F8156863038F4862FC5
:10198000992787FD90950E94BB14682F862F80535E
:101990008A3018F08151863050F4F801EF0DF11DB6
:1019A0006083F39481E492E00E94B91309C081E45A
:1019B00092E069E175E00E94D6132FEF3FEF17C068
:1019C0008F2D833008F4B0CF81E492E00E94C113E0
:1019D0008A810E94720C8C0189810E94720C9C0188
:1019E00044E0220F331F4A95E1F7200F311FC90150
:1019F0000F900F90CF91DF911F910F91FF9008955D
:101A0000EF92FF920F931F93CF93DF937C018B0193
:101A100004C081E492E00E948A1181E492E00E9475
:101A20005B110097B1F781E492E065EC75E00E94EC
:101A3000931381E492E0B8010E94B61381E492E02E
:101A400061EC75E00E9493130E94880CEC0197FDF5
:101A50001DC081E492E067EB75E00E94931381E47E
:101A600092E0B8010E94B61381E492E061EB75E068
:101A70000E9493138091AA0190E06C2FA7010E940D
:101A80002809C7016C2FA8010E946708DF91CF9138
:101A90001F910F91FF90EF900895CF93DF93D82F70
:101AA000C62F803128F481E492E060E30E94B913EC
:101AB00081E492E06D2F40E150E00E948B14CC2332
:101AC00029F081E492E060E20E94B913DF91CF91A6
:101AD00008951F93CF93DF93182FC1E4D2E0CE0176
:101AE00069ED74E00E949313812F61E00E944D0D17
:101AF000CE010E94C113DF91CF911F9108950F93E2
:101B00001F93CF93DF93FC01C62FD42F122F81E4B4
:101B100092E0BF010E94B613C23049F0C33061F0B9
:101B2000C13081F481E492E06BE075E009C081E4AA
:101B300092E06DEF74E004C081E492E06FEE74E037
:101B40000E9493138D2F61E00E944D0DC23050F022
:101B5000812F61E00E944D0DC23021F0802F61E0A5
:101B60000E944D0D81E492E00E94C113DF91CF915C
:101B70001F910F9108958F929F92AF92CF92EF9203
:101B80000F931F93CF93DF938091960190919701CC
:101B900097FD10C053E0880F991F5A95E1F7FC019B
:101BA000E551FD4FC591D49183519D4FFC01859026
:101BB0009490C92C8091AA0190E00E9471098091B3
:101BC000AA0190E060E070E00E945D08182F80910B
:101BD000AB01823040F08091AA0190E061E070E0BA
:101BE0000E945D08E82E8091AB01833040F0809127
:101BF000AA0190E062E070E00E945D08A82E80914A
:101C0000AA0190E063E070E00E945D08D82F0E9476
:101C1000330988E091E06091AB01412F2E2D0A2D10
:101C20000E947F0D209196013091970137FD09C0E8
:101C300081E191E06091AB014C2F2C2D082D0E9489
:101C40007F0D8D2F0E94690D80919501882329F4C5
:101C50007FC181E492E00E948A1181E492E00E94B7
:101C60005B110097B1F781E492E00E94C11381E417
:101C700092E06FE378E00E94D613809196019091F4
:101C8000970197FD06C081E492E066E178E00E944A
:101C9000D61381E492E065E078E00E94D61380914B
:101CA00096019091970197FD06C081E492E066EE5F
:101CB00077E00E94D61381E492E060ED77E00E9425
:101CC000D6138091AB01823030F081E492E069EB71
:101CD00077E00E94D6138091AB01833030F081E42D
:101CE00092E06EE977E00E94D61381E492E067E823
:101CF00077E00E94D61381E492E06EE777E00E94DD
:101D0000931381E492E00E945B110097D1F381E488
:101D100092E00E948A110E94BB14D82F81E492E0C5
:101D20006D2F0E94FC138D2F84548230F8F0DC3428
:101D3000E9F0D834D9F0D835C9F0DB34B9F0D23570
:101D4000A9F0D0320CF489CF81E492E06AE171E02D
:101D50000E94B61381E492E06D2F0E94B91381E4D2
:101D600092E06CE171E00E94E91377CF8091AA01C3
:101D700090E00E947109DB3409F4D4C0DC344CF4E7
:101D8000D534E1F0D83409F4BBC0D43409F0D0C064
:101D900031C0D23539F0D83509F4BBC0DC3409F094
:101DA000C7C0A9C0809196019091970197FDC0C0CE
:101DB0008C2F6C2D482D0E94FC09BAC0809198018F
:101DC000882399F081E492E06CE677E00E94931317
:101DD0008091AA0190E00E94BC0783E090E06FEF41
:101DE0004BE351E00E946708A3C081E492E060E504
:101DF00077E07EC0809196019091970197FD98C001
:101E000081E492E06CE377E00E9493138091AA0151
:101E100090E06C2F40E050E00E9428098091AB01D7
:101E2000823040F08091AA0190E06C2D41E050E0BA
:101E30000E9428098091AB01833040F08091AA0173
:101E400090E0682D42E050E00E94280968E572E0C9
:101E500080E090E00E94221081E492E067E377E066
:101E60000E94D61364E670E080E090E00E942210A9
:101E700081E492E068E277E00E9493138091AA01E6
:101E800090E060E070E00E945D08D82F8091AB0187
:101E9000823040F08091AA0190E061E070E00E9401
:101EA0005D08E82E8091AB01833040F08091AA015B
:101EB00090E062E070E00E945D08A82E68E572E0A4
:101EC00080E090E00E9422108091AB0190E06FEFE3
:101ED0004FEF2D2F0C2F0E943305882329F081E42A
:101EE00092E066EF76E004C081E492E06BED76E08C
:101EF0000E94D6131DC080E090E068E471E016C037
:101F00008091AB018230A0F081E090E069E571E062
:101F10000DC08091AB01833058F082E090E06BE619
:101F200071E004C083E090E061E871E00E94000D80
:101F300081E492E00E94C1130E943309DF91CF91A6
:101F40001F910F91EF90CF90AF909F908F90089539
:101F50008C2F6C2D482D0E94FC0981E492E06EECE0
:101F600076E00E94D613FFCF1F920F920FB60F920A
:101F700011242F933F938F939F93AF93BF9380919F
:101F8000B4019091B501A091B601B091B701309123
:101F9000B8010196A11DB11D232F2D5F2D3720F013
:101FA0002D570196A11DB11D2093B8018093B40156
:101FB0009093B501A093B601B093B7018091B001A1
:101FC0009091B101A091B201B091B3010196A11D10
:101FD000B11D8093B0019093B101A093B201B09371
:101FE000B301BF91AF919F918F913F912F910F902E
:101FF0000FBE0F901F9018959FB7F8942091B001D5
:102000003091B1014091B2015091B30186B5A89BC6
:1020100006C08F3F21F02F5F3F4F4F4F5F4F9FBF55
:10202000542F432F322F2227280F311D411D511DC0
:1020300082E0220F331F441F551F8A95D1F7B90143
:10204000CA010895EF92FF920F931F93CF93DF93EE
:102050007B018C010E94FC0FEB010FC00E94FC0F62
:102060006C1B7D0B83E0683E780738F00894E1082C
:10207000F10801091109C851DC4FE114F10401050F
:10208000110561F7DF91CF911F910F91FF90EF90B4
:102090000895019739F0880F991F880F991F0297AB
:1020A0000197F1F70895789484B5826084BD84B572
:1020B000816084BD85B5826085BD85B5816085BD43
:1020C000EEE6F0E0808181608083E1E8F0E010825C
:1020D000808182608083808181608083E0E8F0E09D
:1020E000808181608083E1EBF0E080818460808387
:1020F000E0EBF0E0808181608083EAE7F0E08081BE
:10210000846080838081826080838081816080831D
:102110008081806880831092C1000895833071F0BF
:10212000843028F48130A1F0823021F514C086304B
:10213000B1F08730D1F08430E9F404C080918000A0
:102140008F7703C0809180008F7D809380000895F9
:1021500084B58F7702C084B58F7D84BD089580914A
:10216000B0008F778093B00008958091B0008F7D8C
:102170008093B0000895CF93DF9390E0FC01E45D7D
:10218000F64F4491885E964FFC018491882371F14B
:1021900090E0880F991FFC01E650F74F259134918C
:1021A000D9018C5F964FFC0125913491C22FD32F1A
:1021B000662349F49FB7F8948C91409584238C93BF
:1021C000888184230BC0623059F49FB7F8948C91B6
:1021D000242F209582238C938881842B888305C0AB
:1021E0009FB7F8948C91842B8C939FBFDF91CF91F4
:1021F00008950F931F93DF93CF930F92CDB7DEB760
:10220000282F30E0F901E05CF64F8491F901E45D9C
:10221000F64F1491285E364FF90104910023D9F04E
:10222000882321F069830E948E106981E02FF0E0FD
:10223000EE0FFF1FEC5FF64F85919491DC019FB785
:10224000F894662321F48C911095812302C08C911F
:10225000812B8C939FBF0F90CF91DF911F910F9196
:102260000895CF93DF93282F30E0F901E05CF64F1B
:102270008491F901E45DF64FD491285E364FF9015F
:10228000C491CC2391F0882311F00E948E10EC2F82
:10229000F0E0EE0FFF1FE25FF64F85919491DC01B5
:1022A0008C918D2321E030E011F420E030E0C90171
:1022B000DF91CF910895FC0184859585FC01E05C58
:1022C000FF4F208131818E5B9F4FFC018081918186
:1022D000281B390B2F733070C9010895FC018485C8
:1022E0009585FC01E05CFF4F40815181FC01EE5B74
:1022F000FF4F208131814217530741F00190F08157
:10230000E02DE80FF91F208130E002C02FEF3FEFF2
:10231000C9010895FC0184859585FC01E05CFF4FAF
:1023200040815181FC01EE5BFF4F208131814217DA
:10233000530771F0A081B181A80FB91F2C91808142
:10234000918101968F7390709183808330E002C0F9
:102350002FEF3FEFC9010895FC0181A1882329F0E7
:10236000A489B5898C9186FFFBCF11A20895FC0149
:1023700026853785D901A05CBF4F8D919C91019630
:102380008F739070D901AE5BBF4F4D915C911197E7
:1023900084179507D1F3D901A05CBF4F0D90BC9174
:1023A000A02DA20FB31F6C93A685B785A05CBF4F6D
:1023B00011969C938E93A689B7892C9181E090E029
:1023C000078C02C0880F991F0A94E2F7282B2C93E0
:1023D00081E081A30488F589E02D80818064808379
:1023E00081E090E00895FB01E05CFF4F20813181A6
:1023F0002F5F3F4F2F733070DB01AE5BBF4F4D91AE
:102400005C9111972417350739F0A081B181A60F8F
:10241000B71F8C9331832083089508951F920F92E4
:102420000FB60F9211242F933F934F935F936F93A7
:102430007F938F939F93AF93BF93EF93FF9380917D
:10244000C00082FD07C08091C60069EB71E00E9468
:10245000F31102C08091C600FF91EF91BF91AF913F
:102460009F918F917F916F915F914F913F912F91AC
:102470000F900FBE0F901F90189581E492E00E947C
:102480005B11009711F00E940D1208951F920F9298
:102490000FB60F9211242F933F938F939F93EF9337
:1024A000FF9320913D0230913E0280913F02909136
:1024B00040022817390731F48091C1008F7D809345
:1024C000C10014C0E0913F02F0914002E350FE4F82
:1024D000208180913F029091400201968F7390700D
:1024E0009093400280933F022093C600FF91EF91AA
:1024F0009F918F913F912F910F900FBE0F901F9042
:102500001895DF92EF92FF920F931F93CF93DF9373
:10251000EC017A018B01DD24D394403081EE580721
:1025200080E0680780E0780749F4DD24EC89FD89C4
:10253000108260E874E88EE190E00FC0EC89FD89BC
:1025400081E090E008A002C0880F991F0A94E2F78A
:10255000808360E079E08DE390E0A80197010E941C
:102560009314215030404040504056954795379540
:10257000279580E12030380710F0DD20B1F6E8899A
:10258000F9893083EA89FB89208319A2EE89FF89C2
:10259000408181E090E09C010C8C02C0220F331F2F
:1025A0000A94E2F7422B4083EE89FF8940819C0127
:1025B0000D8C02C0220F331F0A94E2F7422B408396
:1025C000EE89FF8940819C010E8C02C0220F331FCF
:1025D0000A94E2F7422B4083EE89FF8920810F8C19
:1025E00002C0880F991F0A94E2F7809582238083A6
:1025F000DF91CF911F910F91FF90EF90DF900895A1
:10260000109244021092430288EE93E0A0E0B0E002
:102610008093450290934602A0934702B0934802EC
:10262000E3E4F2E08DE991E09293829389EB91E00B
:10263000958784878DEF91E09787868785EC90E07A
:10264000918B808B84EC90E0938B828B80EC90E07C
:10265000958B848B81EC90E0978B868B82EC90E05D
:10266000918F808F86EC90E0938F828F84E0848FAF
:1026700083E0858F87E0868F85E0878F81E080A368
:102680000895CF93DF930E9453100E94F60ACDE382
:10269000D2E10E94BB0D2097E1F30E943D12F9CFD9
:1026A000CF92DF92EF92FF920F931F93CF93DF931E
:1026B0006C017B018A01C0E0D0E00FC0D7016D91B1
:1026C0007D01D601ED91FC910190F081E02DC601D4
:1026D0000995C80FD91F015010400115110571F758
:1026E000CE01DF91CF911F910F91FF90EF90DF907E
:1026F000CF9008956115710591F0DB010D900020D8
:10270000E9F7AD0141505040461B570BDC01ED91FC
:10271000FC910280F381E02D09959C0102C020E02C
:1027200030E0C9010895EF92FF920F931F93CF936A
:10273000DF937C01062F172FC0E0D0E0F8010F5F78
:102740001F4F6491662351F0F701A081B181ED9193
:10275000FC91C7010995C80FD91FF0CFCE01DF91B9
:10276000CF911F910F91FF90EF9008950E947A13DF
:102770000895DC01ED91FC910190F081E02D099527
:1027800008950F931F93CF93DF93EC016DE00E94A8
:10279000B9138C01CE016AE00E94B913080F191F0A
:1027A000C801DF91CF911F910F9108950F931F934F
:1027B000CF93DF93EC010E9493138C01CE010E9412
:1027C000C113080F191FC801DF91CF911F910F91FD
:1027D00008950F931F93CF93DF93EC010E947A1318
:1027E0008C01CE010E94C113080F191FC801DF918F
:1027F000CF911F910F9108950F931F93CF93DF9364
:10280000EC010E94B9138C01CE010E94C113080F84
:10281000191FC801DF91CF911F910F9108958F92D9
:102820009F92AF92BF92CF92DF92EF92FF920F935F
:102830001F93DF93CF93CDB7DEB7A1970FB6F89470
:10284000DEBF0FBECDBF6C01042FE52FCB01122FD1
:1028500019A2223008F41AE021E2E22EF12CEC0E4B
:10286000FD1E812E9924AA24BB2403C0022FE32F2E
:10287000CA01602F7E2FA50194010E949314129F1C
:10288000802D1124081B0894E108F1080A3014F483
:10289000005D01C0095CF701008321153105410588
:1028A000510521F7C601B7010E947A13A1960FB610
:1028B000F894DEBF0FBECDBFCF91DF911F910F9176
:1028C000FF90EF90DF90CF90BF90AF909F908F9050
:1028D00008952115310549F4DC01ED91FC91019039
:1028E000F081E02D642F099508950E940F1408953A
:1028F0000F931F93CF93DF93EC010E9469148C0117
:10290000CE010E94C113080F191FC801DF91CF919A
:102910001F910F9108959A01462F50E060E070E0FA
:102920000E9469140895A1E21A2EAA1BBB1BFD0187
:102930000DC0AA1FBB1FEE1FFF1FA217B307E4079E
:10294000F50720F0A21BB30BE40BF50B661F771FF6
:10295000881F991F1A9469F76095709580959095D6
:102960009B01AC01BD01CF010895EE0FFF1F059043
:10297000F491E02D09949111089581568A5108F43B
:10298000805285580895FB01DC0105900D920020CE
:08299000E1F70895F894FFCF70
:10299800322E30000820080043757272656E74206C
:1029A8000044656661756C742000270027206973F0
:1029B800206E6F7420612076616C696420636F6D8E
:1029C8006D616E6420636861722E0065726173695F
:1029D8006E6720636869700073657474696E672038
:1029E8006C6F7720667573650073657474696E67BC
:1029F8002068696768206675736500736574746913
:102A08006E6720657874656E6465642066757365A5
:102A18000073657474696E67206C6F636B206279EC
:102A28007465000F0B01FFFF0100000000B7115093
:0A2A3800135B118A116E11AC11003E
:00000001FF
